:100000000C943A090C9481090C9481090C9481098F
:100010000C9481090C9481090C9481090C94810938
:100020000C9481090C9481090C9490310C946232E7
:100030000C9480280C9481090C9481090C948109FA
:100040000C9481090C9481090C9481090C94810908
:100050000C9481090C94F4280C9481090C94810966
:100060000C9481090C9481090C9481090C948109E8
:100070000C9481090C9481090C9481090C948109D8
:100080000C9481090C9481090C9481090C948109C8
:100090000C9481090C9481090C9481090C948109B8
:1000A0000C9481090C9481090C948109F315F615BF
:1000B000FE15031608160D16121617161C16211615
:1000C00026162B162D1630163316361639163C16F4
:1000D0003E1643169D1D9D1DCF1DCF1D1C1E501F7E
:1000E000501F501F3A1ECF1EE01EE01E401F501F23
:1000F000501F491FE11FE11FF31FF31FEA1FF31FEA
:10010000F31FF31FE11FE11FEF1FF31FF31FEF1F8B
:100110004A2B382B5C2B9A29352C352C352B352C3A
:10012000352C892B352C9D2B152C352C352C352C2D
:10013000352CD12B352C352CBA2B352C752B352C59
:10014000352C2F2C2F2C2F2C2F2C2F2C2F2C2F2CD1
:100150002F2C2F2C312C352C4A2B2D2B352C352C9C
:10016000352C352C352C352C352C352C352C352C87
:10017000312C352C352C352B352C2D2C2D2C2D2C94
:100180002D2C2D2C2D2C2D2C2D2C2D2C312CCF32FB
:10019000F632EE33F632EE3342336533EE33BC33B0
:1001A000CB33165C1E001F0020002100220023001C
:1001B00024002500260027002D002E002A002B00F9
:1001C00014001A000800150017001C0018000C008D
:1001D000120013002F003000310039000400160017
:1001E000070009000A000B000D000E000F0033008D
:1001F000340000002800D75C00001D001B00060032
:10020000190005001100100036003700380000000A
:10021000D85CE0000151E200000000002C0000006A
:10022000000000000000E600E7006500E400350083
:100230003A003B003C003D003E003F0040004100D2
:1002400042004300440045004C003D04AA00A900C0
:10025000A800B900010001000100010001004600F2
:10026000BD5CBE5CBF5C0100AC00AE00AB00010039
:1002700001005000510052004F00BC5CC05C000007
:100280000100E100000001000100B20001000100D6
:100290000100010001000100005200000F08E00011
:1002A0000100B300000000002C0800000000000066
:1002B000000000000000000000000000000000003E
:1002C000000000000000000000000000000000002E
:1002D000000000000000000000000000000000001E
:1002E000000000000000000000000000000000000E
:1002F00000000000000000000000000000000000FE
:1003000000000000000000000000000000000000ED
:1003100000000000000000000000000000000000DD
:10032000000000000000000000000000004100008C
:1003300000000000000000000000000000000000BD
:10034000000000000052000000000000000000005B
:10035000000000000000000000000000000000009D
:10036000000000000000000000000000000000008D
:10037000000000000000000000000000000000007D
:10038000000000000000000000000000000000006D
:10039000000000000000000000000000000000005D
:1003A000000000000000000000000000000000004D
:1003B00000000000000000000041000000000000FC
:1003C000000000000000000000000000000000002D
:1003D00020000000000000000000000000000000FD
:1003E000000000000000000000000000000000000D
:1003F00000000000000000000000000000000000FD
:1004000000000000000000000000000000000000EC
:1004100000000000000000000000000000000000DC
:1004200000000000000000000000000000000000CC
:1004300000000000000000000000000000000000BC
:10044000000000000041000000000000000000006B
:10045000000000000000000000000100210000007A
:10046000000000000000000000000000000000008C
:10047000000000000000000000000000000000007C
:10048000000000000000000000000000000000006C
:10049000000000000000000000000000000000005C
:1004A000000000000000000000000000000000004C
:1004B000000000000000000000000000000000003C
:1004C000000000000000000000000000000000002C
:1004D00000410000000000000000000000000000DB
:1004E0000000000000000000220044454255473A49
:1004F0002064697361626C65642E0A00444542554C
:10050000473A20656E61626C65642E0A000A002518
:1005100030313662003A200025303258000A722FFE
:100520006320303132333435363738394142434431
:1005300045460A007267626C696768742074696D69
:1005400065722064697361626C652E0A007267626D
:100550006C696768742074696D657220656E61628C
:100560006C65642E0A007267626C69676874207338
:10057000657420687376205B4E4F454550524F4D51
:100580005D3A2025752C25752C25750A0072676249
:100590006C696768742073657420687376205B45A6
:1005A0004550524F4D5D3A2025752C25752C2575EB
:1005B0000A007267626C69676874207261696E62B2
:1005C0006F7720736574206873763A2025642C2534
:1005D000642C25642C25750A007267626C69676853
:1005E000742064697361626C65205B454550524FAD
:1005F0004D5D3A207267626C696768745F636F6E05
:100600006669672E656E61626C65203D2025750AFE
:10061000007267626C6967687420656E61626C6500
:10062000205B454550524F4D5D3A207267626C69C0
:100630006768745F636F6E6669672E656E61626C72
:1006400065203D2025750A007267626C69676874D1
:1006500020746F67676C65205B454550524F4D5D58
:100660003A207267626C696768745F636F6E66696F
:10067000672E656E61626C65203D2025750A0072EB
:1006800067626C69676874206D6F6465205B4E4FAC
:10069000454550524F4D5D3A2025750A00726762FC
:1006A0006C69676874206D6F6465205B45455052C6
:1006B0004F4D5D3A2025750A007267626C69676864
:1006C000745F696E6974207267626C696768745FD1
:1006D000636F6E6669672E6D6F6465203D20302EF6
:1006E0002057726974652064656661756C74207644
:1006F000616C75657320746F20454550524F4D2EC7
:100700000A007267626C696768745F696E69742059
:100710006565636F6E666967206973206E6F74200C
:10072000656E61626C65642E0A007267626C69674F
:1007300068745F696E6974207374617274210A0051
:100740007267626C696768745F696E69742063615F
:100750006C6C65642E0A007267626C696768745F0E
:10076000636F6E6669672E7370656564203D202532
:10077000640A007267626C696768745F636F6E66B3
:1007800069672E76616C203D2025640A00726762DD
:100790006C696768745F636F6E6669672E736174F6
:1007A000203D2025640A007267626C696768745F87
:1007B000636F6E6669672E687565203D2025640A43
:1007C000007267686C696768745F636F6E666967FB
:1007D0002E6D6F6465203D2025640A007267626C8F
:1007E000696768745F636F6E6669672E656E6162C4
:1007F0006C65203D2025640A007267626C69676839
:10080000745F636F6E66696720454550524F4D3A7D
:100810000A0000047F3F1F643214643214783C1EC7
:100820001E140A052223252628292A2C2D2F303292
:10083000333536383A3B3D3E4042434547494A4CC2
:100840004E5051535557595A5C5E606264666869F0
:100850006B6D6F71737577797B7D7F8183858789F8
:100860008A8C8E90929496989A9C9E9FA1A3A5A7FD
:10087000A8AAACAEAFB1B3B4B6B8B9BBBCBEBFC129
:10088000C2C3C5C6C7C9CACBCCCDCED0D1D2D2D3B4
:10089000D4D5D6D7D7D8D9D9DADADBDBDBDCDCDCC8
:1008A000DCDCDDDDDDDDDCDCDCDCDCDBDBDBDADA8B
:1008B000D9D9D8D7D7D6D5D4D3D2D2D1D0CECDCC02
:1008C000CBCAC9C7C6C5C3C2C1BFBEBCBBB9B8B617
:1008D000B4B3B1AFAEACAAA8A7A5A3A19F9E9C9AA2
:1008E00098969492908E8C8A89878583817F7D7B70
:1008F00079777573716F6D6B6968666462605E5C51
:100900005A5957555351504E4C4A49474543424016
:100910003E3D3B3A3836353332302F2D2C2A2928AC
:1009200026252322FFAA7F55406261636B6C6967AD
:10093000687420737465703A2025750A00626163DB
:100940006B6C696768742064697361626C650A0026
:100950006261636B6C6967687420656E61626C6567
:100960000A006261636B6C6967687420746F676703
:100970006C653A2025750A006261636B6C69676873
:10098000742064656372656173653A2025750A0099
:100990006261636B6C6967687420696E637265611C
:1009A00073653A2025750A0000010101010101016A
:1009B0000101020202020202020202030303030314
:1009C00003030304040404040404050505050506E3
:1009D00006060606070707070708080808090909A1
:1009E000090A0A0A0B0B0B0C0C0C0D0D0D0E0E0E4A
:1009F0000F0F0F10101111111212131314141515DB
:100A000016161717181819191A1A1B1B1C1D1D1E4C
:100A10001E1F2020212222232424252626272829A0
:100A2000292A2B2C2D2D2E2F3031323233343536CE
:100A30003738393A3B3C3D3E3F40414243444546CE
:100A40004748494A4C4D4E4F5051535455565859AA
:100A50005A5B5D5E5F616264656668696B6C6D6F51
:100A60007072737577787A7B7D7E808283858788C4
:100A70008A8C8E8F91939596989A9C9EA0A2A3A5FE
:100A8000A7A9ABADAFB1B3B5B7BABCBEC0C2C4C6FF
:100A9000C9CBCDCFD1D4D6D8DBDDDFE2E4E7E9EBBB
:100AA000EEF0F3F5F8FAFDFF0A0025303258200089
:100AB0006B6579626F6172645F7265706F72743AB0
:100AC00020000A0025303258006B6579626F617230
:100AD000645F7365745F6C65643A200064656C5F85
:100AE0006B65795F6269743A2063616E2774206474
:100AF000656C3A20253032580A006164645F6B658A
:100B0000795F6269743A2063616E2774206164645E
:100B10003A20253032580A003F00433E20004C2541
:100B2000640A0074696D65725F72656164333228AE
:100B3000293A202530346C580A006B65796D617054
:100B40005F636F6E6669672E6E6B726F3A20255811
:100B50000A006B6579626F6172645F69646C653A03
:100B60002025580A006B6579626F6172645F70724C
:100B70006F746F636F6C3A2025580A00686F737446
:100B80005F6B6579626F6172645F6C65647328295D
:100B90003A2025580A000A092D2053746174757390
:100BA000202D0A004743433A20352E342E30204171
:100BB00056522D4C4942433A20322E302E3020419D
:100BC00056525F415243483A20617672350A004FCF
:100BD0005054494F4E533A204C55464120455854A5
:100BE00052414B455920434F4E534F4C4520434FA4
:100BF0004D4D414E44204E4B524F20343039360A31
:100C0000004255494C443A2022626537333764220A
:100C1000202832323A30363A3137204D6172203254
:100C2000372032303230290A005649443A20307891
:100C30003433333528534154414E29205049443AE6
:100C400020307830303032284748363020536174B5
:100C5000616E29205645523A203078303030330AC0
:100C600000444553433A20363025206B6579626F46
:100C70006172642077697468206261636B6C696774
:100C8000687420616E642057533238313220737596
:100C900070706F72740A000A092D205665727369AC
:100CA0006F6E202D0A000A092D20436F6E736F6C42
:100CB00065202D0A4553432F713A09717569740AED
:100CC000000A092D204D61676963202D0A443A0905
:100CD0004465627567204D65737361676520546F65
:100CE00067676C650A583A094D61747269782044E7
:100CF00065627567204D6F646520546F67676C652A
:100D0000202D2053686F77206B657970726573733F
:100D1000657320696E206D617472697820677269ED
:100D2000640A4B3A094B6579626F617264204465CD
:100D300062756720546F67676C65202D2053686F5C
:100D400077206B65797072657373207265706F724E
:100D5000740A4D3A094465627567204D6F75736575
:100D600020546F67676C650A563A09566572736955
:100D70006F6E0A533A095374617475730A433A09E2
:100D8000416374697661746520436F6E736F6C653F
:100D9000204D6F64650A46312D4631303A0953774C
:100DA0006974636820746F204C6179657220302DFE
:100DB000392028463130203D204C30290A302D3949
:100DC0003A0953776974636820746F204C617965C0
:100DD0007220302D390A47524156453A09537769F6
:100DE00074636820746F204C61796572203020280C
:100DF000616C7465726E617465290A423A094A75BC
:100E00006D7020746F20426F6F746C6F61646572D7
:100E10000A4553433A094A756D7020746F20426F3A
:100E20006F746C6F616465722028616C7465726E9A
:100E3000617465290A453A095072696E7420454506
:100E400050524F4D2053657474696E67730A425354
:100E5000504143453A09436C656172204545505203
:100E60004F4D0A4E3A094E4B524F20546F67676CF4
:100E7000650A000A002575002E6C6576656C3A20BF
:100E8000000A002575002E656E61626C653A2000CF
:100E90000A0025303258006261636B6C69676874C0
:100EA0005F636F6E6669672E7261773A20000A0091
:100EB0002575002E6E6B726F3A20000A00257500B2
:100EC0002E737761705F6261636B736C6173685FCF
:100ED0006261636B73706163653A20000A00257577
:100EE000002E737761705F67726176655F6573630B
:100EF0003A20000A002575002E6E6F5F6775693A0B
:100F000020000A002575002E737761705F72616C96
:100F1000745F726775693A20000A002575002E73A8
:100F20007761705F6C616C745F6C6775693A200003
:100F30000A002575002E737761705F7263746C5FB1
:100F4000726775693A20000A002575002E73776173
:100F5000705F6C63746C5F6C6775693A20000A009F
:100F60002575002E636170736C6F636B5F746F5FC8
:100F7000636F6E74726F6C3A20000A002575002E44
:100F8000737761705F636F6E74726F6C5F636170B3
:100F9000736C6F636B3A20000A0025303258006B87
:100FA00065796D61705F636F6E6669672E726177D8
:100FB0003A20000A002575002E6D6F7573653A2082
:100FC000000A002575002E6B6579626F6172643AC4
:100FD00020000A002575002E6D61747269783A2030
:100FE000000A002575002E656E61626C653A20006E
:100FF0000A00253032580064656275675F636F6E62
:101000006669672E7261773A20000A0025750064D0
:10101000656661756C745F6C617965723A20003F3A
:10102000004E4B524F3A206F66660A004E4B524FAD
:101030003A206F6E0A000A6D6F7573653A206F660D
:10104000660A000A6D6F7573653A206F6E0A000AB2
:101050006B6579626F6172643A206F66660A000A96
:101060006B6579626F6172643A206F6E0A000A6D77
:1010700061747269783A206F66660A000A6D61745D
:101080007269783A206F6E0A000A64656275673A81
:10109000206F66660A000A64656275673A206F6EA3
:1010A0000A000A0A4A756D70696E6720746F2062C3
:1010B0006F6F746C6F616465722E2E2E2000433E3C
:1010C0002000436C656172696E6720454550524F40
:1010D0004D0A006565636F6E6669673A0A005B7367
:1010E0005D004B6579626F61726420737461727424
:1010F0002E0A005B575D005B535D005B525D005B39
:10110000445D005B435D00040330000000160347AC
:101110000048003600300020005300610074006178
:10112000006E0000000C0353004100540041004ECB
:101130000000000403090409025B00030100A0FA97
:10114000090400000103010100092111010001222D
:1011500040000705810308000A090401000103009B
:101160000000092111010001226D00070582032002
:10117000000A090402000203000000092111010015
:101180000122220007058303200001070503032035
:1011900000011201100100000008354302000300A5
:1011A000010203010631FF0974A10109751500262A
:1011B000FF009520750881020976150026FF00952D
:1011C0002075089102C005010980A101850319015C
:1011D0002AB700150126B700950175108100C005DA
:1011E0000C0901A101850419012AA002150126A0FC
:1011F00002950175108100C005010906A101850550
:10120000050719E029E715002501950875018102F8
:101210000507190029EF1500250195F075018102D8
:1012200005081901290595057501910295017503B8
:101230009101C005010906A101050719E029E7157B
:101240000025019508750181029501750881010548
:1012500007190029FF150026FF0095067508810073
:101260000508190129059505750191029501750378
:101270009101C00011241FBECFEFDAE0DEBFCDBF69
:1012800004B603FE27C08091EF029091F002A09176
:10129000F102B091F2028730904BA740B04BD1F4ED
:1012A0001092EF021092F0021092F1021092F202EC
:1012B00014BE84B7877F84BF0FB6F894A895809139
:1012C0006000886180936000109260000FBEE0E0D3
:1012D000F8E3099511E0A0E0B1E0ECEFF9E602C017
:1012E00005900D92A63CB107D9F722E0A6ECB1E03B
:1012F00001C01D92AF3EB207E1F70E94B62E0C94DA
:10130000FC340C940000FF93EF93E091C601F09140
:10131000C701309709F00995EF91FF910895FC01FD
:101320008591803011F0EFDFFBCF0895FF27E0E2D9
:1013300030E247FF0CC0419597FF09C0EDE2609590
:10134000709580959095611D711D811D911D27FFE0
:1013500002C0219530E350E2AA27660F771F881F4D
:10136000991FAA1FA41710F0A41B63955A95A9F7FB
:10137000AA3008F0A95FA05DAF93F39561157105E0
:101380008105910541F7ED3211F4EF93F395F217D2
:1013900018F43F93F395FBCF8F91B5DFFA95E1F702
:1013A0000895E991F9918591803021F0853219F005
:1013B000AADFF9CF089520E0E89455915532C1F3A2
:1013C000503311F4689455915A3348F4505390F3C4
:1013D000220F022E220F220F200D250FF4CF0EF424
:1013E000219589919991533619F3533729F1533542
:1013F00059F1BC0188279927E8945C3621F489913A
:10140000999168945591543639F446EF7EF077FF00
:101410000DC08FEF9FEF0AC055374AE039F05835BD
:1014200040E121F0523642E009F00895FF93EF9336
:101430007DDFEF91FF91B7CFFF93EF93FC01819197
:101440008030B9F360DFFBCFFF93EF9368DFF1CF1C
:10145000DF93CF93CDB7DEB72596A3DFCF91DF9192
:1014600008950C94780D229A08950E947A0D0C9498
:10147000330A81FF02C02A9808952A9A089581E0CC
:10148000089581E008950C94410A08950C94450A4A
:101490001F93CF93DF9300D000D01F92CDB7DEB75C
:1014A00049835A836B832091EE0189819A812111AE
:1014B00012C0662349F00E943125182F682F8981B8
:1014C0009A810E94DA2403C00E940525182F6981A1
:1014D0007A81812F04C00E94312569817A810F9021
:1014E0000F900F900F900F90DF91CF911F910C9460
:1014F0001F0BFC01408151816281738184810C94B6
:10150000480ACF93DF93EC010E94790ABE01DF9174
:10151000CF910C94460A0E9440290E949326811183
:1015200002C00E943C270E942A180C94350A0C9491
:10153000310A81E008950C94990ACF93C82F0E9434
:10154000390A8C2F0E949B0ACF91089508950E941A
:10155000CF1F0E94A60A2FEF84E39CE02150804019
:101560009040E1F700C000000C941A290F931F93DC
:10157000CF93DF93EC010E94790A8C01BE010E9497
:10158000430A882309F450C0BE01C8010E94931782
:10159000882309F449C0BE01C8010E94E3188823CA
:1015A00009F442C0BE01C8010E9424198823E1F158
:1015B000BE01C8010E944F1A8823B1F1BE01C801C3
:1015C0000E94DC15882381F18A81882331F1013062
:1015D0008CE5180751F00E3D8CE51807D9F0011580
:1015E0001C45D9F40E94A70A1FC080918102C82F10
:1015F000C095C170C0FB80F980938102CC2329F093
:101600008CEF94E00E948F090FC08AEE94E00E9454
:101610008F090BC00E943C2707C0CE01DF91CF91FC
:101620001F910F910C943F0AC0E08C2FDF91CF9156
:101630001F910F91089580E090E00895089526E4A9
:10164000829FC0011124FC012EE0729FE00DF11D6C
:101650001124E60FF11DEE0FFF1FEE55FE4F859191
:1016600094910895880F991FFC01E35FFA4F8591CB
:1016700094910895CF93DF930E941F0B0E944C0C0E
:10168000EC018115904508F043C0C11580E4D807EE
:1016900008F0CBC0C03ED10528F5C03CD10508F00C
:1016A000B3C0C83AD10578F4C53AD10508F0A4C052
:1016B000C130D10509F4ECC008F4E8C0C430D1054C
:1016C00008F0E6C0E3C0CF3BD10508F0DFC0C85A40
:1016D000D0E0CC0FDD1FC35EDE4F0990D881C02D56
:1016E000D464D6C0C11590E2D90750F4C11521E0E9
:1016F000D20708F0CDC0C83ED10508F4C9C0C6C0A5
:10170000C11580E3D80708F086C0CE019F707FC066
:10171000C11595E5D90708F043C0C11524E5D207E6
:1017200008F09AC0C11582E5D80708F5C11591E502
:10173000D90708F07DC0CE0174E0969587957A951B
:10174000E1F783709C2F937021E030E002C0220FFC
:10175000331F9A95E2F73C68382BCF70C695C69533
:1017600080E2C89FE0011124C22BD32B91C09E01BF
:10177000237033278C2F86958695C115D34508F0A5
:101780005CC0C1E0D0E002C0CC0FDD1F2A95E2F7BB
:1017900020E2829FC0011124C82BD92BDC6878C0BD
:1017A000C11529E5D207A0F4C11588E5D80708F0CE
:1017B00058C0C11596E5D90708F068C08C2F0E9463
:1017C000E00C8F71C82FD0E0DC2FCC27D06260C036
:1017D000C1152AE5D20708F449C0CE0190568115FB
:1017E000904208F053C08D2F8F710E94E00CDD27CE
:1017F000D0628F71D82B4CC0C55AD0E0C55BDE4F8C
:10180000C881D0E0D06444C0CE01805C91090E94C0
:10181000320BEC013DC0CE019927D3FF03C0EC0190
:10182000D86C36C0EC01D06C33C0DF70D06A30C0E9
:10183000DC2FCC27C16FD06A2BC0C1E0D0E002C042
:10184000CC0FDD1F2A95E2F720E2829FC001112410
:10185000C82BD92BDA681CC0DC2FCC27C46FD06A08
:1018600017C0DC2FCC27C06FD06A12C08C2F8F70AE
:101870000E94E00C94E0D695C7959A95E1F7CF7059
:10188000D0E0DC2FCC27D069C82B02C0C0E0D0E06C
:10189000CE01DF91CF9108958238910569F1B0F4BE
:1018A0008133910509F46DC048F48932910509F43A
:1018B00063C08A32910509F469C0089585339105A2
:1018C00009F455C089339105B9F00895833E910517
:1018D00069F138F4803E9105B1F0823E910509F13D
:1018E0000895863E9105A9F1873E9105B9F1843EA0
:1018F000910509F064C023C02091E00220FD4FC093
:1019000021FD4DC008958091E00280FD44C080918A
:10191000E10280FF44C08091E00284FD42C083EE7A
:101920004DC08091E00282FF38C0F5CF8091E00287
:1019300082FD33C08091E10280FD31C0ECCF809107
:10194000E10281FF32C08091E00284FD2AC087EE6F
:1019500035C08091E00283FF26C0F5CF8091E00280
:1019600083FD21C08091E10281FD1FC0ECCF8091F9
:10197000E00285FD1CC01DC08091E00285FD19C0FC
:1019800016C08091E00286FD16C017C08091E0026B
:1019900086FD13C010C089E311C082EE0FC080EE37
:1019A0000DC080E00BC086EE09C084EE07C089E25E
:1019B00005C085E303C08AE201C081E390E0089599
:1019C0009091E00292FF0DC0282F2871283019F461
:1019D000877F846006C0282F2471243011F48B7F08
:1019E000886093FF0DC0282F2871283119F4877E55
:1019F000846106C0282F2471243111F48B7E886104
:101A00002091E10220FF0DC0382F3871383019F4D1
:101A1000877F816006C0382F3171313011F48E7F9D
:101A2000886021FF0DC0282F2871283119F4877E86
:101A3000816106C0282F2171213111F48E7E8861C9
:101A400094FD877E0895E82FF0E0EE0FFF1FEC5421
:101A5000FD4F808191810895CF92DF92EF92FF92A6
:101A60000F931F93CF93DF938DE195E00E948F0931
:101A700084EBE82E82E0F82EC0E0D0E098E1C92E99
:101A800095E0D92E0FE015E0DF93CF93DF92CF9250
:101A90000E94280A85E195E00E948F09F701819153
:101AA00091917F010E947A269F938F931F930F93AA
:101AB0000E94280A8DE095E00E948F0921968DB73B
:101AC0009EB708960FB6F8949EBF0FBE8DBFC53067
:101AD000D105D1F6DF91CF911F910F91FF90EF903B
:101AE000DF90CF90089580EA8A95F1F708950895E0
:101AF0000C94770D0C94770DCF93DF93ACE5B1E0A8
:101B000041E651E061E070E08D91E82FE295EF70E1
:101B1000F0E021A18F70EB0102C0CC0FDD1F8A9590
:101B2000E2F7CE019C2F9095922391A392A1892B4D
:101B300082A34A175B0741F7AEE4B1E04CE551E000
:101B400061E070E08D91E82FE295EF70F0E021A167
:101B50008F70EB0102C0CC0FDD1F8A95E2F7CE013A
:101B60009C2F9095922391A392A1892B82A34A172F
:101B70005B0741F7EAEAF2E0A4EBB2E084EB92E023
:101B8000119211921D921D928E179F07C9F785E041
:101B90000E946B0EDF91CF910C948B0A2F923F9293
:101BA0004F925F926F927F928F929F92AF92BF926D
:101BB000CF92DF92EF92FF920F931F93CF93DF9319
:101BC0008CE5C82E81E0D82E0AEA12E094EB492E6B
:101BD00092E0592E312C88248394912C5801D801FD
:101BE0006D907C9011971D921C92F60181916F016E
:101BF000C82FC295CF70D0E099A18F70740101C039
:101C0000EE0C8A95EAF7892F8E2989A38AA12E2CBA
:101C1000209482218AA30E94730DEEE4F1E020E07B
:101C200030E06191A62FA295AF70B0E090968C91B4
:101C3000D8014D915C9190E06F7002C095958795A9
:101C40006A95E2F780FD08C0C401022E02C0880F29
:101C5000991F0A94E2F702C080E090E0482B592BCC
:101C6000D8014D935C932F5F3F4F2E303105C9F65D
:101C700089A1282229A28AA1E82AEAA20E5F1F4F81
:101C800081E0F501208131812615370509F480E0D6
:101C9000382A4016510609F0A1CF232D45E064EB08
:101CA00072E08AEA92E00E946C0E0E94970A832DED
:101CB000DF91CF911F910F91FF90EF90DF90CF9028
:101CC000BF90AF909F908F907F906F905F904F905C
:101CD0003F902F9008950895FF920F931F93CF93F5
:101CE000DF93F82E092F162FD72FC42F222349F068
:101CF00081E08093CA010E94B2289093C901809329
:101D0000C8018091CA018823D9F08091C8019091BF
:101D1000C9010E94CA28069798F0EF2DF02FA12F35
:101D2000BD2F80E090E04C2F50E08417950734F4ED
:101D3000219131912D933D930196F7CF1092CA01D5
:101D4000DF91CF911F910F91FF900895EF92FF9235
:101D50000F931F93CF93DF93F62E472FE82FF0E0DA
:101D6000711106C0E855F64F6491762F862F72C028
:101D7000272F30E0E855F64FE4910E2F10E056E0A3
:101D8000659FC0011124CFEFD0E0BE010E943D3419
:101D90005BEA5603C001579F900D11248F0D911DD2
:101DA0008F0D911D982F990F890F7E01E21AF30A6A
:101DB000E09ED001E19EB00DF09EB00D1124489F31
:101DC000A0011124452F55277E01E41AF50AE09E53
:101DD000A001E19E500DF09E500D11247E01E81AE5
:101DE000F108E29EC001E39E900DF29E900D112439
:101DF000892F9927C81BD90BC09FC001C19F900D87
:101E0000D09F900D11246230710591F048F4611556
:101E10007105E1F061307105A9F48B2F752F19C0A0
:101E20006430710561F038F06630710579F00AC0F0
:101E3000892F7B2F0EC08E2F7B2FE52F0AC08E2F70
:101E4000792F02C0852F7E2FEB2F03C08B2F7E2F83
:101E5000E92F6E2FDF91CF911F910F91FF90EF909F
:101E600008950895CF93DF93762FE901682F842F8B
:101E70000E94A60E798368838A83DF91CF910895AB
:101E80008091BE02282F269530E02115310519F4E6
:101E90008170826005C02532310524F0817088642C
:101EA0008093BE02089588E090E00C94BC34CF92F9
:101EB000DF92EF92FF926B017C010E94400FB7010D
:101EC000A60188E090E0FF90EF90DF90CF900C9417
:101ED000DA34EEEBF2E083E0808311828FEF8283CD
:101EE0008383148260817181828193810C94570F66
:101EF0008091810280FF08C089EF97E09F938F93C4
:101F00000E94280A0F900F908091810280FF0FC0DD
:101F10008091BE0281701F928F938CED97E09F930A
:101F20008F930E94280A0F900F900F900F9080912E
:101F3000810280FF0FC08091BE0286951F928F9311
:101F400081EC97E09F938F930E94280A0F900F9047
:101F50000F900F908091810280FF0EC08091BF0290
:101F60001F928F9387EA97E09F938F930E94280A8E
:101F70000F900F900F900F908091810280FF0EC004
:101F80008091C0021F928F938DE897E09F938F936B
:101F90000E94280A0F900F900F900F90809181025D
:101FA00080FF0EC08091C1021F928F9383E797E05C
:101FB0009F938F930E94280A0F900F900F900F907D
:101FC0008091810280FF0EC08091C2021F928F9388
:101FD00087E597E09F938F930E94280A0F900F90B8
:101FE0000F900F9008958091BE0280FF02C08695E9
:101FF000089580E008958091C202833018F48F5FC5
:102000008093C2026091BE027091BF028091C002B3
:102010009091C1020C94570F8091C202882319F04D
:1020200081508093C2026091BE027091BF02809184
:10203000C0029091C1020C94570F6091040170E0AE
:102040008091BE0280FF0AC08091CF0123E0829F71
:10205000C00111248D539D4F0C946C188091CE01BA
:1020600090910301891780F7E82FF0E09F01220F7C
:10207000331FE20FF31FED53FD4F118210821282C6
:102080008F5FF0CF9091BE0290FF16C09091CE016D
:1020900020910301921770F4E92FF0E0DF01AA0FFD
:1020A000BB1FEA0FFB1FED53FD4F8183608342830B
:1020B0009F5FF0CF0C941D100895CF93DF9300D055
:1020C0001F92CDB7DEB79091BE0290FF0AC09E016D
:1020D0002F5F3F4F0E94320F4B8169818A810E949E
:1020E00042100F900F900F90DF91CF910895CF93F2
:1020F000DF93EC01EC81F0E0EC5DF74F4491EEEB07
:10210000F2E0628181810E945D108C818F5F8C83FF
:10211000DF91CF910895CF93DF93EC01EEEBF2E0E6
:10212000438162818C810E945D108C818F5F8C83E2
:10213000DF91CF9108950F931F93CF93DF9300D03A
:102140001F92CDB7DEB78C018091CB0181110AC0FF
:102150009E012F5F3F4F4FEF6FEF0E94320F8A813A
:102160008093CB01F8018481813051F028F08230D6
:1021700061F44091CB010AC08091CB0140E007C0DF
:102180006091CB0140E080E003C040E080E060E08F
:102190000E944210F801848190E0019663E070E0B3
:1021A0000E94513484830F900F900F90DF91CF9154
:1021B0001F910F9108954F925F926F927F928F922D
:1021C0009F92AF92BF92CF92DF92EF92FF920F93C6
:1021D0001F93CF93DF9300D01F92CDB7DEB7F82EB9
:1021E000B62EE42E622E9091BE0290FFB4C0E92F6D
:1021F000E695AE2FB0E0AF59BE4F8C918093D701DA
:102200009E7F923061F49E012F5F3F4F8F2D0E9481
:10221000320F4B8169818A810E94421062C08230F4
:1022200019F4E090C1025DC0863019F4F090BF024D
:1022300058C08930D9F3893109F053C0E9518E2F44
:102240008170782E81E0A72CA826E695F0E0EC5D61
:10225000F64FC590D490412CDD2492EB892E95E069
:10226000992E609102014616D0F5042D10E00C9DC8
:10227000C0010D9D900D1C9D900D112470E00E94D9
:102280003D345F2C711002C0560E01C0561A809169
:10229000810280FF11C0DF92CF921F92AF921F92F6
:1022A0005F921F924F929F928F920E94280A0FB6C0
:1022B000F894DEBF0FBECDBF8091CE01080F111D77
:1022C0009801220F331F020F131F98012D533D4F0A
:1022D0004E2D6B2D852D0E94320F4394C2CF0E944C
:1022E0001D10F092BF02B092C002E092C1026620BF
:1022F000E9F06091BE027091BF028091C00290919E
:10230000C1020E94570F8091810280FF24C08091FA
:10231000C1021F928F938091C0021F928F93809170
:10232000BF021F928F938DE895E00CC080918102CF
:1023300080FF11C01F92EF921F92BF921F92FF92D7
:1023400086E695E09F938F930E94280A0FB6F89433
:10235000DEBF0FBECDBF0F900F900F90DF91CF91DA
:102360001F910F91FF90EF90DF90CF90BF90AF90B3
:102370009F908F907F906F905F904F900895EEEBBD
:10238000F2E09181282F438162818AE0890F0C94C9
:10239000DB1081E00C94BF11EEEBF2E09181282F6D
:1023A0004381628186EF890F0C94DB1081E00C94ED
:1023B000CC11EEEBF2E0628121E1620F08F46FEFE5
:1023C000282F438181810C94DB1081E00C94D9117A
:1023D000EEEBF2E0628121E1621B08F460E0282F5D
:1023E000438181810C94DB1081E00C94E811EEEBC9
:1023F000F2E0438121E1420F08F44FEF282F628180
:1024000081810C94DB1081E00C94F711EEEBF2E08B
:10241000438121E1421B08F440E0282F6281818141
:102420000C94DB1081E00C94061220E00C94DB107D
:10243000FF920F931F93CF93DF93EC01F12C0FEFDB
:1024400010E060910201F616F0F48091CE012F2D7C
:1024500030E0280F311DC901880F991F280F391F3F
:102460002D533D4F70E0C8010E945134962F8C814E
:102470004091C1026091C002F99E800D11240E941A
:10248000320FF394DECF0E941D109A818C8190FF51
:1024900002C08F5F01C081508C83DF91CF911F916B
:1024A0000F91FF900895BF92CF92DF92EF92FF922B
:1024B0000F931F93CF93DF93FC01828180FF02C0B3
:1024C0000FEF01C001E010E080910201181708F041
:1024D00040C08091CE01C12ED12CE601C80FD11D84
:1024E000CE01880F991FC80FD91FCD53DD4F198218
:1024F00018821A8234E0E32EF12CB12C8091CD01A8
:102500008B0D893014F0877005C087FF03C0909150
:102510000201890F082E000C990BC816D90691F4F8
:102520008091C1028E9DA0018F9D500D1124559563
:102530004795559547959E016091C0028091BF02D5
:102540000E94320FB00EF1E0EF1AF108B9F61F5FEA
:10255000BBCF0E941D108091CD01013031F481115B
:1025600002C080910201815007C090E00196609105
:10257000020170E00E9451348093CD01DF91CF9130
:102580001F910F91FF90EF90DF90CF90BF90089533
:10259000CF938091CE0190910301891770F4E82FB9
:1025A000F0E09F01220F331FE20FF31FED53FD4FA9
:1025B0001182108212828F5FF0CFC0E06091020121
:1025C000C617C0F5EC2FF0E070E0CF010E94513447
:1025D0002091CE01820F2091CC01022E000C330BF2
:1025E00090E0E217F307CCF020910101022E000CDD
:1025F000330B2E173F078CF09C01220F331F820FE5
:10260000931F9C012D533D4F4091C1026091C00228
:102610008091BF020E94320F0BC0FC01EE0FFF1F22
:102620008E0F9F1FFC01ED53FD4F1182108212820D
:10263000CF5FC4CF0E941D10209100018091CC017A
:10264000820F8093CC0190910101920F9093010130
:1026500019165CF4082E000C990B4091020150E011
:1026600041505109841795071CF0219520930001D2
:10267000CF9108950F931F93CF93DF938C01FC01AB
:102680008481958101968170992795838483C0E028
:10269000D5E580910201C81700F58091CE012C2F5D
:1026A00030E0280F311DC901880F991F280F391FED
:1026B0002D533D4F4C2F4695F80184819581840F11
:1026C000911D81704091C1026091C0028D9F802D4B
:1026D00011240E94320FCF5FDCCFDF91CF911F9189
:1026E0000F910C941D100F931F93CF93DF93EC0168
:1026F00000E010E080910201282F30E0021713075C
:1027000024F59091CE019801290F311DA901440FA4
:10271000551F240F351F2D533D4F869590E04C815A
:10272000081719071CF4442331F002C0411103C0FB
:102730004091C10201C040E06091C0028091BF029F
:102740000E94320F0F5F1F4FD5CF0E941D108C814A
:1027500090E00196817099278C83DF91CF911F9132
:102760000F9108956091BE02669570E04BE050E0D5
:1027700085E091E00E94A734892B19F481E08093D1
:10278000D8010E94B2289093D1018093D00180910A
:10279000810280FF08C08DE495E09F938F930E9493
:1027A000280A0F900F9008951092D801809181020D
:1027B00080FF08C084E395E09F938F930E94280ACE
:1027C0000F900F9008959091BE0290FF54C09170A9
:1027D000811102C0926006C0853210F0986402C078
:1027E000880F982B9093BE026623B1F06091BE02D1
:1027F0007091BF028091C0029091C1020E94570F58
:102800008091810280FF1BC08091BE0286951F923D
:102810008F938DE996E00BC08091810280FF0FC0FD
:102820008091BE0286951F928F938FE796E09F93CB
:102830008F930E94280A0F900F900F900F90609135
:10284000BE02669570E04BE050E085E091E00E94AA
:10285000A734892B19F00E94D41302C00E94B2132E
:1028600081E08093D3014091C1026091C0028091C8
:10287000BF020C9415120895682F9091BE02969590
:1028800081E0890F853208F081E00C94E31381E048
:102890000C943C14682F9091BE0296958FEF890F8F
:1028A00009F484E20C94E31381E00C944A1461E08F
:1028B0000C94E3138091BE0281608093BE028091EC
:1028C000810280FF0DC01F9281E08F9381E196E02D
:1028D0009F938F930E94280A0F900F900F900F9054
:1028E0008091BE0286950C94571460E00C94E3131B
:1028F0008091D601811160C08091810280FF08C063
:1029000080E497E09F938F930E94280A0F900F9086
:102910008091810280FF08C08AE297E09F938F93A5
:102920000E94280A0F900F900E949326811110C0D8
:102930008091810280FF08C082E097E09F938F938F
:102940000E94280A0F900F900E943C270E94690F56
:102950000E94530F6093BE027093BF028093C00227
:102960009093C1026E7FC1F48091810280FF08C004
:1029700089EB96E09F938F930E94280A0F900F9007
:102980000E94690F0E94530F6093BE027093BF02B2
:102990008093C0029093C1020E94400F0E94780F62
:1029A0001092D8018091BE0280FF03C086950E94DC
:1029B000751481E08093D60108958091BE028E7FC8
:1029C0008093BE026091BE027091BF028091C002EE
:1029D0009091C1020E94570F8091810280FF0FC029
:1029E0008091BE0281701F928F9389ED95E09F9335
:1029F0008F930E94280A0F900F900F900F900E94C3
:102A0000D4132FEF80E792E0215080409040E1F70F
:102A100000C000000C941D108091810280FF10C046
:102A20008091BE02809581701F928F9388E496E01A
:102A30009F938F930E94280A0F900F900F900F90F2
:102A40008091BE0280FD0C94DD140C945A140F93F7
:102A50001F93CF93DF938091D801882309F48CC012
:102A60008091D701E091BE02E695E81BE093D20188
:102A7000823049F4F0E0E05EF74FE491CE2FD0E0F1
:102A800007E710E149C0863049F4F0E0E35EF74F14
:102A9000E491CE2FD0E00BE810E13EC0893051F434
:102AA000E695F0E0E65EF74FE491CE2FD0E008E146
:102AB00012E132C08F3051F4E695F0E0E95EF74F55
:102AC000E491CE2FD0E003E512E126C0853149F430
:102AD000F0E0EC5EF74FE491CE2FD0E008EC12E18D
:102AE0001BC0883181F0833239F4E2E1F8E0C5910E
:102AF000D4910BE910E110C0843251F4C4EFD1E05D
:102B000003E713E109C0C8EED3E00AE313E104C010
:102B1000C0EDD7E001E31FE08091D301882389F065
:102B20001092D3010E94B2289E0120953095820F09
:102B3000931F9093D1018093D0011092D5011092F0
:102B4000D4018091D0019091D1010E94CA288C17A4
:102B50009D0790F0E091D001F091D101CE0FDF1FE1
:102B6000D093D101C093D00180ED91E0F801DF91C5
:102B7000CF911F910F910994DF91CF911F910F91E8
:102B80000895882311F0FA0101C0FB010994CF9345
:102B9000DF93C82FD62F0E94F30F8C1740F00E94AE
:102BA000F30F8D1720F4DF91CF910C9447148C2FE5
:102BB000DF91CF910C9457140F931F93CF93FB0188
:102BC000C281CC2309F463C08C010E94B2258272B9
:102BD000F801E25CFC45E431F10508F059C0EA5A1D
:102BE000FF4F0C9487340E940C1506C044E554E155
:102BF00067E474E10E94C115C0E04AC047E454E1B3
:102C000064E574E1F7CF46ED51E169EC71E1F2CF93
:102C100049EC51E166ED71E1EDCF44EF51E165EE34
:102C200071E1E8CF45EE51E164EF71E1E3CF42E1BC
:102C300052E163E072E1DECF43E052E162E172E132
:102C4000D9CF4CE050E16BEF7FE0D4CF4BEF5FE0AA
:102C50006CE070E1CFCF81E017C065E082E010C08A
:102C600068E086E00DC06EE089E00AC064E18FE0B4
:102C700007C067E185E104C088E106C062E289E13E
:102C80000E94C715B9CF83E20E945714B5CFC1E0A7
:102C90008C2FCF911F910F9108950E94932681113F
:102CA00002C00E943C270E94C4268093DB02282F8A
:102CB00026952695269530E02530310524F087703D
:102CC00080628093DB028091DB0280FF04C08695E6
:102CD0008695869501C080E00C94C8172091DB0290
:102CE000822F869586958695482F50E04430510571
:102CF00054F48F5F982F990F990F990F822F877037
:102D0000892B8093DB028091DB0281608093DB0260
:102D10000E94C8268091810280FF11C08091DB0251
:102D20008695869586951F928F9380E999E09F936B
:102D30008F930E94280A0F900F900F900F90809110
:102D4000DB028695869586950C94C8178091DB02E8
:102D5000982F969596959695A1F0915E990F990F5B
:102D6000990F8770892B8093DB02887F91E009F4AB
:102D700090E08091DB0290FB80F98093DB020E945F
:102D8000C8268091810280FF11C08091DB02869568
:102D9000869586951F928F9388E799E09F938F93EE
:102DA0000E94280A0F900F900F900F908091DB02E5
:102DB0008695869586950C94C8178091DB0280FDD8
:102DC0001FC081608093DB02813019F489E0809319
:102DD000DB028091DB020E94C8268091810280FF85
:102DE00008C080E599E09F938F930E94280A0F9076
:102DF0000F908091DB028695869586950C94C81776
:102E000008958091DB0280FF14C08E7F8093DB02E7
:102E10000E94C8268091810280FF08C08DE399E05E
:102E20009F938F930E94280A0F900F9080E00C943C
:102E3000C8170895CF93C091DB02C17080918102C1
:102E400080FF0CC01F92CF9382E699E09F938F93EF
:102E50000E94280A0F900F900F900F90CC2319F02A
:102E6000CF910C940117CF910C94DD169091DB0259
:102E7000892F8695869586958F5F8F71977085309F
:102E800038F4880F880F880F892B8093DB0202C0EB
:102E90009093DB028091DB02887F91E009F490E05F
:102EA0008091DB0290FB80F98093DB020E94C826B0
:102EB0008091810280FF11C08091DB02869586950A
:102EC00086951F928F9389E299E09F938F930E943A
:102ED000280A0F900F900F900F908091DB0286953B
:102EE000869586950C94C817853008F084E09091FB
:102EF000DB029770282F220F220F220F922B909324
:102F0000DB02987F21E009F420E09091DB0220FBB6
:102F100090F99093DB020C94C8170E94741780916B
:102F2000DB020C94C8269C01FB018281882349F1B5
:102F30002D3BFCE53F07C9F040F42B3BECE53E0799
:102F400069F02C3B3C4561F008952F3B9CE5390727
:102F500091F070F0203C3C4589F0089584E001C078
:102F600080E00E948D1780E008950E94A616FBCF96
:102F70000E946E16F8CF0E941A17F5CF0E943617DE
:102F8000F2CF81E00895269A2E9808952E980895FC
:102F9000CF92DF92EF92FF92CF93C82F853050F4FB
:102FA000811109C0809180008F7D809380000E94F4
:102FB000C61706C0C4E080918000806280938000C4
:102FC0002C2F30E0AFEFBFEF0E948D34DC01CB013E
:102FD00042E0B695A795979587954A95D1F78C3796
:102FE00044E1940728F469E070E00E943D3427C072
:102FF0008A50974DAF4FBF4F6627782F892F9A2F52
:1030000025EF38E241E050E00E94653469017A0121
:10301000CA01B9010E9421349B01AC01C701B6016C
:103020000E942134BB27A92F982F872F009721E0DA
:10303000A207B10511F0BC0102C06FEF7FEF7093E2
:103040008B0060938A00CF91FF90EF90DF90CF903C
:10305000089508950E94C31782E28093800089E159
:10306000809381008FEF9FEF90938700809386007D
:103070000C944D162EB1342F309523233EB1432BA3
:103080003FB7F894FC01680F791FE617F70789F03E
:10309000819198E04EB9000000C087FF2EB9880FDB
:1030A000000000C000C000C02EB900C09A9591F782
:1030B000ECCF3FBF08952DB1242B2DB99B01220FDA
:1030C000331F620F731F0E943A1887EC90E001973C
:1030D000F1F700C00000089544E00C945B180F93D2
:1030E0001F93CF93DF93C62FD42F122FFC01828121
:1030F0008823C9F06093DB010E94B2289093DA0123
:103100008093D90180E28C0F883008F057C0C770D7
:1031100081E001C0880FCA95EAF7DF91CF911F9136
:103120000F910C945D1D8091DB01681330C080917C
:10313000D9019091DA010E94CA28883C910538F59E
:1031400000E20D0FCD17B9F080E28C0F883040F40B
:10315000C77081E001C0880FCA95EAF70E94641D1C
:10316000083028F581E09D2F977001C0880F9A954F
:10317000EAF70E945D1D812F0E944A1D0830F0F47D
:10318000D77081E001C0880FDA95EAF70AC080E2C3
:103190008C0F883098F4C77081E001C0880FCA9501
:1031A000EAF7DF91CF911F910F910C94641D812F4D
:1031B000DF91CF911F910F910C944A1DDF91CF9118
:1031C0001F910F9108959C01CB01233F4CE53407DB
:1031D000F9F078F4283DFCE53F07B9F0293D4CE5CE
:1031E000340711F1273D3C4531F526E241EE61EE11
:1031F0001EC0253FFCE53F0799F070F0263F3C4597
:10320000D1F427E245EE66EE12C027E245EE0EC08D
:1032100026E241EE60EE0BC027E245EE64EE07C009
:1032200026E241EE62EE03C028E241E065EE0E9434
:103230006F1880E00895FC018281882319F01092B4
:10324000DB01089581E00895CF93DF93EC01FB014A
:103250008281882309F41FC1C230FCE5DF0708F42E
:103260001BC1C6319CE5D90738F09E012A5F3C4559
:103270002930310508F010C10E94A6269093E10282
:103280008093E002C031ECE5DE0709F4C3C008F02A
:1032900041C0C8308CE5D80709F49AC0F0F4C430B6
:1032A000ECE5DE0709F487C068F4C2308CE5D80786
:1032B00009F477C0C330DC4509F0E3C08091E00237
:1032C000826076C0C630ECE5DE0709F46EC008F017
:1032D0007BC08091E00288606BC0CC308CE5D80761
:1032E00009F485C068F4CA30ECE5DE0709F474C05F
:1032F00008F079C00E94CF1F8091E002806858C01A
:10330000CE308CE5D80709F476C008F07FC08091F4
:10331000E0028BC0CB3FECE5DE0709F44FC018F5A7
:10332000C3318CE5D80709F47DC078F4C131ECE5F0
:10333000DE0709F473C0C231DC4509F0A2C00E9467
:10334000CF1F8091E0028F7733C0C5318CE5D8075D
:1033500009F472C008F486C0CA3FDC4509F091C088
:103360008091E1023EC0CF3FFCE5DF0709F45FC07A
:1033700058F4CD3F9CE5D90709F444C008F43FC098
:103380008091E10282602DC0C130FDE5DF0709F4C4
:1033900075C008F45DC0C230DD4509F072C080E040
:1033A0006EC08091E002816003C08091E002806184
:1033B0008093E00266C08091E00211C08091E1023A
:1033C00082608093E1025DC08091E0028062F0CF74
:1033D0008091E0028064ECCF8091E002886084609C
:1033E000E7CF8160EECF8091E0028E7FE1CF8091C8
:1033F000E0028D7FDDCF8091E002877FD9CF809181
:10340000E10218C08091E1028D7FDBCF8091E00264
:103410008F7ECECF8091E0028F7DCACF8091E00277
:103420008F7BC6CF8091E002877F8B7FC1CF809159
:10343000E1028D7F8E7FC5CF8091E00282FB222743
:1034400020F991E0922790FB82F990FB83F9B0CFAD
:103450008091E102982F909591708E7F892B90FB3F
:1034600081F9AFCF0E94CF1F8091E00287FB222716
:1034700020F991E0922790FB87F99ACF81E00E9492
:103480003E278091E0029091E1020E94B7260E94BF
:10349000CF1F80E001C081E0DF91CF910895CF93ED
:1034A000DF9386319C4541F5EB010E94B225982FB0
:1034B0008A812091100130911101882379F09A7A44
:1034C00081E009F480E08093DC01911102C069E29F
:1034D00001C065E3C9010E94FB270AC08091DC019D
:1034E000811102C069E201C065E3C9010E9406289A
:1034F0000E94002680E001C081E0DF91CF91089515
:103500009093E2018093E1010895E091E101F0914F
:10351000E201309721F00190F081E02D099480E0E4
:103520000895EF92FF921F93CF93DF93FC01A09138
:10353000E101B091E201109709F442C080911C01B1
:10354000882341F08091E00287FF04C0808181835D
:1035500085E08083EF011296ED91FC911397CE01E7
:1035600009958091810282FF2BC080FF04C080EB0F
:103570009AE00E948F0918E08AEAE82E8AE0F82E85
:103580008091810280FF0BC088811F928F93FF92F0
:10359000EF920E94280A0F900F900F900F901150F9
:1035A00021961111EDCF8091810280FF09C088EA38
:1035B0009AE0DF91CF911F91FF90EF900C948F09CB
:1035C000DF91CF911F91FF90EF9008952091DF013F
:1035D0003091E0012817390771F09093E001809352
:1035E000DF01E091E101F091E201309721F00680E6
:1035F000F781E02D099408952091DD013091DE01DD
:103600002817390771F09093DE018093DD01E09176
:10361000E101F091E201309721F00084F185E02D85
:103620000994089585B7806885BF85B7806885BF90
:10363000089508950C94191B0C941A1B0C94191BD3
:103640000C94191B0E94121B0E941E1B0C941C1B25
:1036500081E008950E94A9280E947C0D0E945429AF
:103660000E944D160E9478140C94201BCF93C82FF3
:103670008091810282FF1EC080FF04C089EC9AE025
:103680000E948F098091810280FF0CC01F92CF930E
:1036900084EC9AE09F938F930E94280A0F900F90DA
:1036A0000F900F908091810280FF04C082EC9AE01D
:1036B0000E948F098C2FCF910C949D0A7F928F923C
:1036C0009F92AF92BF92CF92DF92EF92FF920F93B1
:1036D0001F93CF93DF93CDB7DEB72A970FB6F89439
:1036E000DEBF0FBECDBF0E94CE0D0E94281B8111F0
:1036F00011C08FEF89838A831B820E94B228816068
:10370000782F9D838C8349815A816B818D810E94A2
:10371000101C4FC044EEA42E41E0B42E00E010E097
:10372000702E802F0E94230D6C01F50181909190E5
:103730005F01882699268114910431F40F5F1F4F91
:103740000530110569F7D5CF8091810281FD0E9476
:103750002C0D80E0EE24E394F12C94012E213F21E6
:10376000232B09F18E837F82CE20DF2081E0CD28BC
:1037700009F480E088870E94B2288160782F9A87B8
:1037800089874E815F8168858A850E94101C000FA1
:10379000111FF801EC51FE4F80819181E826F92636
:1037A000F182E08206C08F5FEE0CFF1C8E30A9F61E
:1037B000C5CF0E9427150E9429180E94851A909152
:1037C000E3018917C9F00E94851A8093E3012A96C4
:1037D0000FB6F894DEBF0FBECDBFDF91CF911F9122
:1037E0000F91FF90EF90DF90CF90BF90AF909F90A0
:1037F0008F907F900C94361B2A960FB6F894DEBFFC
:103800000FBECDBFDF91CF911F910F91FF90EF9031
:10381000DF90CF90BF90AF909F908F907F90089552
:10382000CF93DF93CDB7DEB72B970FB6F894DEBFFB
:103830000FBECDBF4F83588769877A878B87DE019C
:10384000119686E0FD0111928A95E9F785E0FE0167
:10385000379601900D928A95E1F749815A816B81E3
:103860007C818D819E810E949F222B960FB6F894B9
:10387000DEBF0FBECDBFDF91CF910895FC018081E7
:1038800091810E9473250895CF93882309F4A1C0E4
:10389000C82F8238C1F40E94851A81FD9AC069E35D
:1038A00080911001909111010E94FB270E94002637
:1038B0002FEF81EE94E0215080409040E1F700C06E
:1038C000000069E319C0833801F50E94851A80FD64
:1038D00080C063E580911001909111010E94FB2747
:1038E0000E9400262FEF81EE94E02150804090400E
:1038F000E1F700C0000063E5809110019091110193
:103900000E940628CF910C9400268438C1F40E94AE
:10391000851A82FD5EC067E48091100190911101CB
:103920000E94FB270E9400262FEF81EE94E0215099
:1039300080409040E1F700C0000067E4DDCF8CEFED
:103940008C0F813AF8F48C2F0E94422C811141C0D7
:103950006C2F80911001909111010E9459278823AA
:1039600049F06C2F80911001909111010E9406285E
:103970000E9400266C2F80911001909111010E94ED
:10398000FB27C0CF80E28C0F883048F4C77081E0FD
:1039900001C0880FCA95EAF70E94B525B3CFEBE5C1
:1039A000EC0FE33040F4F0E0EC54FE4F808190E007
:1039B000CF910C94E61AC85AC73158F4EC2FF0E0B6
:1039C000EE0FFF1FEA57FE4F80819181CF910C943B
:1039D000FC1ACF910895882309F45BC0682F8238C0
:1039E00079F40E94851A81FF54C069E38091100127
:1039F000909111010E94FB270E94002669E310C0EC
:103A00008338B1F40E94851A80FF43C063E580913A
:103A10001001909111010E94FB270E94002663E58E
:103A200080911001909111010E9406280C940026AB
:103A3000843879F40E94851A82FF2BC067E4809154
:103A40001001909111010E94FB270E94002667E45B
:103A5000E7CF8CEF860F813A18F380E2860F88302B
:103A600048F4677081E001C0880F6A95EAF70E9408
:103A7000BB25DCCF8BE5860F833020F480E090E01F
:103A80000C94E61A685A673120F480E090E00C94B8
:103A9000FC1A0895CF93C82F0E94441CC93349F4DF
:103AA0002FEF87EE93E0215080409040E1F700C077
:103AB00000008C2FCF910C94EB1C882321F00E94E6
:103AC000B5250C9400260895882321F00E94BB257B
:103AD0000C9400260895CF92DF92EF92FF920F93FD
:103AE0001F93CF93DF937C01062FC72FFC01158115
:103AF00012951F70D281D1110E94D2250E94AB2550
:103B0000882379F0DD2369F080E2800F883048F067
:103B100082E00E944A260E94AB2591E0D82ED92649
:103B200001C0D12CCC2EC2948FE0C8228C2D90E005
:103B3000FC01E659FF4F0C9487348C2F807FCF70A7
:103B4000882311F0C295C07FDD2399F0CC2309F4BE
:103B500082C180E2800F883010F0011104C08C2FE8
:103B60000E94B52503C08C2F0E94C5250E94002607
:103B700072C1802F0E94EB1CCC2309F491C180E21A
:103B8000800F883010F0011104C08C2F0E94BB25DB
:103B900003C08C2F0E94CB250E94002681C18C2F50
:103BA000807FCF70803211F0C295C07F002319F062
:103BB0000130C9F022C0DD2371F0112341F0113032
:103BC00031F40E94E5258C2B0E94ED2569C10E94ED
:103BD000E5258C2B1DC0112319F0113009F460C1AB
:103BE0000E94F62525C0DD2321F0163008F058C1CB
:103BF0000EC0153008F054C11BC0DD2361F0112345
:103C000031F0F701858180FF26C18F7085838C2F6D
:103C10000E945D1D45C1112359F0093309F02CC1E3
:103C2000FFEF27EE83E0F15020408040E1F722C112
:103C30008C2F0E94641D34C18C2F869586958370CD
:103C400019F0813061F02CC1DD2321F0802F9C2FF1
:103C5000937002C080E090E00E94E61A29C1DD2343
:103C600021F0802F9C2F937002C080E090E00E9492
:103C7000FC1A1EC18C2F837009F045C0D11114C1EC
:103C8000402F429546954770440F440F602F6F7048
:103C9000862F90E0A0E0B0E0042E04C0880F991FAA
:103CA000AA1FBB1F0A94D2F704FF10C00FE010E058
:103CB00020E030E004C0000F111F221F331F4A957F
:103CC000D2F7009510952095309503C000E010E0E4
:103CD0009801C695C695C370BC01CD01602B712BB0
:103CE000822B932BC23049F058F4C13019F00E9456
:103CF000F023DAC00E94DE23D7C00E940224D4C081
:103D00000E94DC23D1C0DD2319F08C2F817001C00B
:103D10008695882309F4C8C0402F42954695477080
:103D2000440F440F602F6F70862F90E0A0E0B0E04A
:103D3000042E04C0880F991FAA1FBB1F0A94D2F734
:103D400004FF10C00FE010E020E030E004C0000FDE
:103D5000111F221F331F4A95D2F700951095209509
:103D6000309503C000E010E09801C695C695C37079
:103D7000BC01CD01602B712B822B932BC23049F0FB
:103D800058F4C13019F00E94B5248EC00E94A324BB
:103D90008BC00E94C72488C00E94162485C0CF70A3
:103DA000DD2339F08C2F0E943C24802F0E945D1D62
:103DB0007BC0802F0E94641D8C2F0E945D2474C0E4
:103DC000023F01F128F4003F41F0013FA1F03FC064
:103DD000033FF9F0043F39F13AC0DD2341F01530DB
:103DE00008F05EC08C2F8F710E94822459C016305B
:103DF00008F056C0F7CFDD2339F08C2F8F710E9469
:103E00003C244EC0DD23C9F38C2F8F710E945D24AA
:103E100047C0DD2329F08C2F8F710E94272440C0DA
:103E20000E9422243DC0DD2349F0CF718C2F0E94D7
:103E30003C2463E08C2F0E94352632C081E00E9432
:103E40004A26123068F182E00E944A2629C0DD230A
:103E500031F0112391F2802F0E94441C21C01123C4
:103E600099F2093349F49FEFE7EEF3E09150E04017
:103E7000F040E1F700C00000802F0E94EB1C10C052
:103E80004C2F4F70602FC7010E941B0B0E944D23C7
:103E90000FC04C2F4F70602FC7010E941E0B08C02F
:103EA00088EF8C0D843020F40E94851A0E949D0AB0
:103EB000DD20C9F00E94A72580FD15C0F701128200
:103EC0000E94A1250E943C24C7010E94941F0E94C9
:103ED000A125DF91CF911F910F91FF90EF90DF907F
:103EE000CF900C945D24DF91CF911F910F91FF90A3
:103EF000EF90DF90CF9008950F931F93CF93DF93B0
:103F0000EC01688179818A810E947E258C010E9462
:103F1000D9240E94CA23B801CE010E946B1DDF91F3
:103F2000CF911F910F910895CF93DF93FC01908162
:103F3000818123813481232B31F08F3F31F481E063
:103F40009F3F19F403C081E001C080E080FD0EC0F6
:103F5000EF01CF010E94B60A882341F0CE010E94F2
:103F60007C1FCE01DF91CF910C94810ADF91CF911C
:103F700008950E94D2250E94E2250E94002680E03A
:103F800090E00E94E61A80E090E00C94FC1A809188
:103F90001001909111010E9411280C94B91F0E94E8
:103FA000C2250C94C71FE92FE295EF704E2F50E009
:103FB000FA013297EE30F105B0F4E658FF4F0C9459
:103FC0008734803F91F018F4883E68F40EC0843F37
:103FD00051F40BC0883E48F0813F29F406C093FBA2
:103FE000882780F9089580E0089581E008950E946F
:103FF00073250E94D31F0895CF93DF9300D000D084
:104000001F92CDB7DEB70F900F900F900F900F90CB
:10401000DF91CF910895CF93DF9300D000D000D0EF
:10402000CDB7DEB726960FB6F894DEBF0FBECDBF74
:10403000DF91CF9108951F93CF93DF93C091EF014C
:1040400016E08091F001C81799F0D0E01C9FF001B4
:104050001D9FF00D1124EF50FE4F40815181628170
:104060007381848195810E940B202196C770E9CFCE
:10407000DF91CF911F91089540912102509122022A
:104080006091230270912402809125029091260272
:104090000C940B20CF938091260282958F7009F0AB
:1040A0005FC080912302882309F45AC08091EF01F8
:1040B000B091F00170912102A0912202409124025E
:1040C0005091250291E07F3F09F090E0692FC6E012
:1040D0008B1709F445C04115510521F0AF3F21F080
:1040E00020E003C021E001C0262F90E020FD35C074
:1040F000C89FF001C99FF00D1124EF50FE4F2181A0
:104100002A132BC02081271328C02281211125C00A
:10411000238134812417350710F421503109241BE1
:10412000350B283C3105C8F4209126022F70206100
:104130002093260226E0289FF001299FF00D1124EC
:10414000EA50FE4F80818F708061808381E292E02F
:104150000E94941FCF910C941B2001968770B8CFBA
:10416000CF910895AF92BF92CF92DF92EF92FF92DC
:104170000F931F93CF93DF93CDB7DEB761970FB641
:10418000F894DEBF0FBECDBF8C0185E0F801DE01E3
:104190001D9601900D928A95E1F7D8014C911196E8
:1041A0005C9111971296EC9030912102609122025D
:1041B0008091240290912502009731F06F3F31F4F5
:1041C00021E03F3F19F403C021E001C020E0B22FFD
:1041D000B170BB2E20FD60C1F801C380D480A090D7
:1041E0002302AA2009F4EEC020912602C816D9069F
:1041F00028F0D601A81BB90BCD0104C0809590957D
:104200008C0D9D1DFF24F394883C910580F0F12CCA
:10421000207F09F09CC07C2DD98AC88A6E2D89899F
:104220000E94FC1F81E292E00E94941F2DC1822F08
:10423000807F09F054C0561314C0431312C0FE2CE3
:10424000E1100FC02F702061209326020E943C20B5
:1042500081E292E00E94941F80912602F8018583FA
:104260005CC1CD2831F05F3F31F481E04F3F19F45C
:1042700003C081E001C080E080FD03C081E08E25A5
:1042800002C080E090E0F82FF170FF2E80FF1CC08C
:104290008091EF012091F00136E0821709F41AC1F4
:1042A00090E0389FF001399FF00D1124EF50FE4F40
:1042B0006181561306C06081461303C06281E61215
:1042C00003C001968770E9CFFE2CEE2009F425C1CA
:1042D00080912602816080932602F12C1EC1561324
:1042E00009C0431307C0E11005C080912602F80100
:1042F0008583A4C04D875E878D859E850E94F71FAC
:10430000882379F1EE2069F120912602822F82958F
:104310008F7090E0029774F08091210290912202B8
:1043200098878F831986DB86CA862C87CE010796ED
:104330000E94941F86E0F801A1E2B2E001900D9284
:104340008A95E1F70E944A200E943C200DC0561732
:1043500071F04D875E878D859E850E94F71F8111C4
:104360001AC0C8010E94941FFF24F394D6C04313BF
:10437000F0CFE110EECF80912602F8018583C801CD
:104380000E94941F86E0E1E2F2E0DF011D928A952F
:10439000E9F7FA2CC2C0EE2021F320912602822FE9
:1043A00082958F7090E002972CF28091210290917B
:1043B00022029A8389831B82DD82CC822E83CE01E6
:1043C0000196B6CFC816D90628F0F601E81BF90BFE
:1043D000CF0104C0809590958C0D9D1D883C910562
:1043E00048F0F12C7C2DD98AC88A6E2D89890E94CB
:1043F000FC1F4AC0FE2CEE2009F4B3CF561333C085
:10440000431331C02091260220FD24C0822F8295C3
:104410008F70482F50E041155105E1F0D8011596F5
:104420002C9315974F30510549F08F5F982F929537
:10443000907F822F8F70892B15968C93C8010E94D4
:10444000941F86E0F801A1E2B2E001900D928A95F6
:10445000E1F73DC086E0F801A1E2B2E001900D92E3
:104460008A95E1F75AC04D875E878D859E850E94AB
:10447000F71F81115FCF8091260281608093260211
:10448000C8010E94941F49C0E1E2F2E086E0DF012A
:104490001D928A95E9F71BC0EE2009F462CF4D8783
:1044A0005E878D859E850E94F71FF82E882309F46C
:1044B00058CF86E0F801A1E2B2E001900D928A9512
:1044C000E1F781E292E00E943E1C0E944A200E9495
:1044D0003C2023C04D875E878D859E850E94732575
:1044E000292F22952F70223028F49F7039F08111E6
:1044F00005C00BC0243028F49F7049F4805E8830DA
:1045000020F0C8010E94941FBF2CFB2C06C0D801CC
:1045100015969C91907F91F7F8CF8F2D61960FB6ED
:10452000F894DEBF0FBECDBFDF91CF911F910F91E9
:10453000FF90EF90DF90CF90BF90AF9008951F93C2
:10454000CF93DF93CDB7DEB72C970FB6F894DEBFCD
:104550000FBECDBF4F83588769877A878B879C872B
:10456000CE0107960E94B2208823D1F09F818885D2
:104570002A853B85232B31F08F3F31F481E09F3F2B
:1045800019F403C081E001C080E080FD47C04F8185
:10459000588569857A858B859C850E940B203EC055
:1045A00086E0FE013796DE01119601900D928A9504
:1045B000E1F7FF81E8856A857B856115710531F03A
:1045C000EF3F31F481E0FF3F19F403C081E001C007
:1045D00080E080FD23C02091F00130E0C901019608
:1045E000877099274091EF0150E084179507F1F10A
:1045F000F983EA837D836C8396E0929FD001939F39
:10460000B00D1124AF50BE4FFE01319601900D92B6
:104610009A95E1F78093F0010E941B2016E08091AB
:10462000EF019091F001891771F1189FC0011124D9
:104630008F509E4F0E94B220882329F1E091EF0114
:104640001E9FF0011124EF50FE4F40815181628185
:104650007381848195810E940B208091EF0190E00D
:104660000196877099278093EF01D9CF0E94CF1FC1
:104670001092F0011092EF01E1E2F2E086E0DF013A
:104680001D928A95E9F72C960FB6F894DEBF0FBEFF
:10469000CDBFDF91CF911F910895EF92FF920F93BD
:1046A0001F93CF93DF938C01892B09F46CC0F12CFD
:1046B000EE24E394E8012196F8018491843740F4D4
:1046C000843008F051C0813081F0823019F15BC034
:1046D000853709F444C0A8F19CE7980F903708F09B
:1046E00052C08F770E94EB1C41C00E5F1F4FFE012E
:1046F000849190E2980F983050F48770FE2D01C09D
:10470000FF0F8A95EAF78F2F0E94D52514C00E94CB
:10471000441C2DC00E5F1F4FFE01849190E2980F44
:10472000983060F48770FE2D01C0FF0F8A95EAF77C
:104730008F2F0E94DB250E94002619C00E94EB1CCF
:1047400016C00E5F1F4FFE01C491CC2381F08FE98C
:104750009FE00197F1F700C00000C150F6CF0E5F57
:104760001F4FFE01F49003C00E94441C8E018F2D48
:10477000882309F49FCFEFE9FFE03197F1F700C0FC
:1047800000008150F5CFDF91CF911F910F91FF90E5
:10479000EF900895089508950C94CB230C94CC23A6
:1047A0000E94CE23609358027093590280935A025C
:1047B00090935B020C94B91F0C94D0230F931F931A
:1047C000009158021091590220915A0230915B02D7
:1047D000602B712B822B932B1F910F910C94D02364
:1047E0000F931F93009158021091590220915A0281
:1047F00030915B0260237123822393231F910F91D9
:104800000C94D0230F931F930091580210915902DA
:1048100020915A0230915B026027712782279327EB
:104820001F910F910C94D0230C94CB230E9414243D
:1048300060935402709355028093560290935702EE
:104840000C94B91F60E070E0CB010C9416240F9318
:104850001F9341E050E060E070E08A019B0104C0DA
:10486000000F111F221F331F8A95D2F7C901B8010B
:104870001F910F910C9416240F931F9341E050E069
:1048800060E070E004C0440F551F661F771F8A95D3
:10489000D2F78091540290915502A0915602B091A6
:1048A00057028A019B01082B192B2A2B3B2BC9018C
:1048B000B8011F910F910C9416240F931F9341E0A0
:1048C00050E060E070E004C0440F551F661F771F82
:1048D0008A95D2F7409550956095709580915402D5
:1048E00090915502A0915602B09157028A019B0106
:1048F000082319232A233B23C901B8011F910F91D3
:104900000C9416240F931F9341E050E060E070E098
:1049100004C0440F551F661F771F8A95D2F78091F8
:10492000540290915502A0915602B09157028A010B
:104930009B01082719272A273B27C901B8011F9186
:104940000F910C9416240F931F9300915402109111
:1049500055022091560230915702602B712B822B09
:10496000932B1F910F910C9416240F931F9300917A
:104970005402109155022091560230915702602343
:104980007123822393231F910F910C9416240F936C
:104990001F930091540210915502209156023091BC
:1049A000570260277127822793271F910F910C943C
:1049B000162408952EE0929F800D1124E82FE6958D
:1049C000E695E695877051E001C0550F8A95EAF7A4
:1049D00085E0E89FF0011124E95DFD4F20E030E023
:1049E00070E04081CB01022E02C0969587950A9413
:1049F000E2F78170819584278523842781932F5F37
:104A00003F4F2530310569F708952EE0929F800DC4
:104A10001124682F669566956695982F977085E0A6
:104A2000689FB001112440E050E080E0FB01E40FFA
:104A3000F51FE95DFD4F208130E0092E02C036955B
:104A400027950A94E2F721703327042E01C0220F24
:104A50000A94EAF7822B4F5F5F4F4530510531F7DB
:104A60000895BF92CF92DF92EF92FF920F931F9320
:104A7000CF93DF938C01C0905402D0905502E09008
:104A80005602F09057028091580290915902A091DD
:104A90005A02B0915B02C82AD92AEA2AFB2ACFE13E
:104AA000D0E0D701C6010C2E04C0B695A795979506
:104AB00087950A94D2F780FD04C0219790F7B12C16
:104AC00007C0BC2EB8018C2F0E943A0B0197A9F3A6
:104AD0008B2DDF91CF911F910F91FF90EF90DF9081
:104AE000CF90BF900895CF93DF93EC010E943125C2
:104AF000BE010E943A0BDF91CF9108951F93CF938F
:104B0000DF93EB019091EE01992321F0CB010E94FC
:104B1000732513C0882349F0CB010E943125182F3B
:104B2000682FCE010E94DA2404C0CB010E94052523
:104B3000182FBE01812F0E943A0BDF91CF911F9158
:104B4000089580915C02859585958595089580915D
:104B50005C028770089590915C02977081E009F47F
:104B600080E0089580918002089590918002892BC1
:104B7000809380020895809590918002892380938C
:104B80008002089510928002089590917F02892BEF
:104B900080937F020895809590917F02892380936E
:104BA0007F02089510927F02089590917E02892BD2
:104BB00080937E020895809590917E028923809350
:104BC0007E02089510927E02089580915D020895FC
:104BD00008950C94E8250C94E92590915D029817AE
:104BE00021F080935D020C94EB25089580915D0285
:104BF000882329F010925D0280E00C94EB25089543
:104C0000E0911001F0911101809180028083E09188
:104C10001001F0911101908180917F02892B808396
:104C2000E0911001F0911101908180917E02892B19
:104C3000808380915D02882381F0E0911001F091E2
:104C400011019081892B8083809110019091110135
:104C50000E94432781110E94F625809110019091B6
:104C600011010C94911A0C94E82598E0899F900109
:104C70001124262B20935C020E943C2480915C022C
:104C80008595859585950C94332610925C0280E07D
:104C90000C94332620915C028095822380935C02E1
:104CA000982F977079F430E0482F082E000C550BA0
:104CB0002417350739F08595859585950E945D24E3
:104CC0000C94452608959093C7018093C6010895DA
:104CD0008295982F937344E0949F900111248C7CCB
:104CE00086958695282B822F8575880F2A7A26959A
:104CF000822B0895CF93DF93D92F0E946826C82F67
:104D00008D2F0E9468262C2F30E0322F2227A901F8
:104D1000482BCA01DF91CF9108956FEF7FEF80E0BC
:104D200090E00C94E63480E090E00E94C23421E0F0
:104D30008C3E9E4F09F020E0822F089582E090E0A3
:104D40000C94B43483E090E00C94B434CF9384E0BA
:104D500090E00E94B434C82F81E290E00E94B43405
:104D60002C2F30E0A901582BCA01CF910895CF9381
:104D7000C92F682F84E090E00E94C8346C2F81E234
:104D800090E0CF910C94C83486E090E00C94B43459
:104D9000682F86E090E00C94C834AB01BC018FE032
:104DA00090E00C94DA34AB01BC0183E190E00C9408
:104DB000DA3460E070E0CB010C94D32660E070E060
:104DC000CB010E94CD260C94D9266CEE7EEF80E0BC
:104DD00090E00E94E63460E082E090E00E94C834F7
:104DE00060E083E090E00E94C83410925802109274
:104DF000590210925A0210925B0260E084E090E047
:104E00000E94C83460E081E290E00E94C83460E013
:104E100085E090E00E94C83460E086E090E00E9467
:104E2000C8346FEF87E090E00E94C83440E050E063
:104E3000BA0188E090E00E94DA3460E08DE090E012
:104E40000E94C83440E050E0BA0188E190E00E943E
:104E5000DA3460E087E190E00E94C83440E050E03E
:104E6000BA018CE190E00E94DA3460E080E290E0E8
:104E70000E94C8340C94DE260C94E526682F8EE040
:104E800090E00C94C834FC01329680911C01882378
:104E900031F08091E00287FF02C09EE101C096E000
:104EA00080E0915028F021912223D9F38F5FF9CF30
:104EB0000895662351F120911C012223E9F02091ED
:104EC000E00227FF19C0462F4695469546954E317C
:104ED000E0F4677021E030E002C0220F331F6A95D2
:104EE000E2F7FC01E40FF11D828190E028233923D1
:104EF00081E0232B69F409C0FC01329608962191C8
:104F0000621729F0E817F907D1F780E0089581E0EA
:104F100008959C01FC0132969FEF80E04191461775
:104F200089F09F3F19F4411101C0982F8F5F86309F
:104F3000A9F79F3F39F0F901E90FF11D97FDFA95A7
:104F40006283089508959C012A5F3F4FFC014281CE
:104F5000461301C01282019682179307B9F708958C
:104F6000262F2695269526952E3170F4FC01E20F0A
:104F7000F11D677021E030E001C0220F6A95EAF769
:104F80008281282B228308958091810280FF0CC0AA
:104F90001F926F938AEF9AE09F938F930E94280A43
:104FA0000F900F900F900F900895262F269526951D
:104FB00026952E3178F4FC01E20FF11D677021E097
:104FC00030E001C0220F6A95EAF7209582812823FC
:104FD000228308958091810280FF0CC01F926F93FD
:104FE0008CED9AE09F938F930E94280A0F900F9068
:104FF0000F900F90089520911C01222329F02091F9
:10500000E00227FD0C94B0270C94892720911C0105
:10501000222329F02091E00227FD0C94D5270C943F
:10502000A32720911C01FC013296222331F08091AC
:10503000E00287FF02C08EE101C086E0DF011D9221
:105040008A95E9F7089508950C9423280C94232851
:10505000CF930E9426280E94CE0D0E942428C0E0F3
:105060008C2F0E94230D892B29F4CF5FC530C1F707
:1050700080E001C081E0CF9108950C9423280C9426
:105080003D280E943F288091E602843061F1109211
:10509000820220E488E190E00FB6F894A89580930E
:1050A00060000FBE2093600080E00E94C81780E07F
:1050B0000E949D0A0E943F2883B7817F846083BF3E
:1050C00083B7816083BF7894889583B78E7F83BFD1
:1050D0000FB6F894A8958091600088618093600075
:1050E000109260000FBE08950C9423280E94CF1FD9
:1050F0000E944D160E94851A0E949D0A0C947428E5
:105100001F920F920FB60F9211248F939F93AF931C
:10511000BF9380918202811113C08091DC02909133
:10512000DD02A091DE02B091DF024196A11DB11D0A
:105130008093DC029093DD02A093DE02B093DF0245
:10514000BF91AF919F918F910F900FBE0F901F90C5
:10515000189582E084BD93E095BD9AEF97BD80934A
:105160006E0008952FB7F8948091DC029091DD02D3
:10517000A091DE02B091DF022FBF08952FB7F894FF
:105180006091DC027091DD028091DE029091DF027D
:105190002FBF0895CF92DF92EF92FF920F931F934C
:1051A0002FB7F8944091DC025091DD026091DE024D
:1051B0007091DF022FBF6A017B01EE24FF248C0176
:1051C00020E030E0C016D106E206F30610F44150AC
:1051D00051099A01281B390BC9011F910F91FF90AA
:1051E000EF90DF90CF90089578941F920F920FB6B2
:1051F0000F9211248F939F93AF93BF938091DC0202
:105200009091DD02A091DE02B091DF020196A11D16
:10521000B11D8093DC029093DD02A093DE02B09377
:10522000DF02BF91AF919F918F910F900FBE0F90B2
:105230001F90189581E08093E00080E28093D80071
:105240001092C9008FE19EE40197F1F700C00000C1
:1052500087E090EBDC018093EF029093F002A09343
:10526000F102B093F2029CE088E10FB6F894A895A1
:10527000809360000FBE90936000FFCF0C948D264A
:105280000E94CE0D8FE39CE90197F1F700C000006A
:105290000E94CE0D80E00E94230D80FF04C00E947A
:1052A0003E290C941A2908950E949326811102C068
:1052B0000E943C270E949E26809381020E94A6267F
:1052C0009093E1028093E0020E94A226682F70E092
:1052D00080E090E00C94DC23CF93C82F1F928F9333
:1052E0008EE19BE09F938F930E94280A81E090E0DB
:1052F000A0E0B0E0BC01CD0104C0660F771F881F9D
:10530000991FCA95D2F70E94DC230F900F900F903F
:105310000F90CF910C94CF1FCF93DF93482F50E085
:10532000FA013597EF33F10508F09FC2E857FF4FB8
:105330000C94873483ED90E10E948F098FE090E117
:105340000E948F090E94A2261F928F938CE090E109
:105350009F938F930E94280A8AE090E10E948F0910
:105360000E949E26C82F87EF9FE00E948F091F9200
:10537000CF9382EF9FE09F938F930E94280A80EF44
:105380009FE00E948F0986EE9FE00E948F098C2F7C
:1053900081701F928F9383EE9FE09F938F930E9463
:1053A000280A81EE9FE00E948F0987ED9FE00E940E
:1053B0008F09C1FB882780F91F928F9384ED9FE0AE
:1053C0009F938F930E94280A82ED9FE00E948F098D
:1053D00086EC9FE00E948F09C2FB882780F91F920C
:1053E0008F9383EC9FE09F938F930E94280A81EC18
:1053F0009FE00E948F0988EB9FE00E948F09C3FB0A
:10540000CC27C0F91F92CF9385EB9FE09F938F939A
:105410000E94280A83EB9FE00E948F090E94A62623
:10542000EC018FE99FE00E948F09DF93CF938AE917
:105430009FE09F938F930E94280A88E99FE00E9433
:105440008F098FE79FE00E948F098C2F81701F9238
:105450008F938CE79FE09F938F930E94280A8DB7CC
:105460009EB780960FB6F8949EBF0FBE8DBF8AE799
:105470009FE00E948F0983E69FE00E948F09C1FB95
:10548000882780F91F928F9380E69FE09F938F93E8
:105490000E94280A8EE59FE00E948F098CE49FE01D
:1054A0000E948F098D2F81701F928F9389E49FE056
:1054B0009F938F930E94280A87E49FE00E948F09A0
:1054C00085E39FE00E948F09D695D1701F92DF93EC
:1054D00082E39FE09F938F930E94280A80E39FE0DE
:1054E0000E948F098EE19FE00E948F09C2FB8827EE
:1054F00080F91F928F938BE19FE09F938F930E947F
:10550000280A89E19FE00E948F0987E09FE00E94BE
:105510008F09C3FB882780F91F928F9384E09FE057
:105520009F938F930E94280A82E09FE00E948F0938
:1055300088EF9EE00E948F09C4FB882780F91F92A4
:105540008F9385EF9EE09F938F930E94280A83EFAD
:105550009EE00E948F0981EE9EE00E948F09C5FBAC
:10556000882780F91F928F938EED9EE09F938F93F3
:105570000E94280A8CED9EE00E948F0980EC9EE03C
:105580000E948F09C6FB882780F91F928F938DEBAD
:105590009EE09F938F930E94280A8DB79EB78096B6
:1055A0000FB6F8949EBF0FBE8DBF8BEB9EE00E949E
:1055B0008F0983EB9EE00E948F09C7FBCC27C0F9BF
:1055C0001F92CF9380EB9EE09F938F930E94280AB7
:1055D0008EEA9EE00E948F090E94C426C82F87E9A8
:1055E0009EE00E948F091F92CF9382E99EE09F93D5
:1055F0008F930E94280A80E99EE00E948F0986E826
:105600009EE00E948F098C2F81701F928F9383E8F8
:105610009EE09F938F930E94280A81E89EE00E945B
:105620008F0988E79EE00E948F09C695C695C695AA
:105630001F92CF9385E79EE09F938F930E94280A45
:1056400083E79EE00E948F098DB79EB740960FB604
:10565000F8949EBF0FBE8DBF06C082EC90E10E9401
:105660008F090E943C27C1E005C181EC9CE07FC00E
:1056700080918102817F8E7F8093810286EA9CE007
:105680000E948F098EEB90E10E948F0981E0809348
:105690008302E9CF0E94CF1F82EA90E10E948F0926
:1056A0009FEF23ED80E3915020408040E1F700C060
:1056B00000000E941A29D7CF80918102C82FC0957F
:1056C000C170C0FB80F980938102CC2319F086E978
:1056D00090E1BDC089E890E10E948F09809181022C
:1056E000897F877F80938102BECF9091810291FB59
:1056F000CC27C0F981E0C827892FC0FB81F98093AE
:105700008102CC2319F08CE790E127C08EE690E16E
:105710002EC09091810292FBCC27C0F981E0C8276E
:10572000892FC0FB82F980938102CC2319F08FE589
:1057300090E113C08FE490E11AC09091810293FB35
:10574000CC27C0F981E0C827892FC0FB83F980935B
:105750008102CC2351F083E490E10E948F09809173
:10576000810281608093810285C086E390E10E947E
:105770008F0979CF87E99CE00E948F0981E69CE040
:105780000E948F0989E29CE00E948F0981E09CE0E1
:105790000E948F098FEC9BE00E948F0984EA9BE0B6
:1057A000E6CF86E99BE00E948F090E94851A1F922E
:1057B0008F938CE79BE09F938F930E94280A8091A0
:1057C0001C011F928F9385E69BE09F938F930E940D
:1057D000280A8091A8021F928F9382E59BE09F93F5
:1057E0008F930E94280A8091E00287FB882780F926
:1057F0001F928F938AE39BE09F938F930E94280AC6
:105800000E94BE289F938F937F936F9383E29BE0C8
:105810009F938F930E94280A8DB79EB746960FB626
:10582000F8949EBF0FBE8DBF1ECF0E94CF1F9091D8
:10583000E00297FBCC27C0F981E0C827892FC0FB85
:1058400087F98093E002CC2329F08CE290E10E945A
:105850008F0910C081E290E18ACF895303C08D5136
:1058600001C080E00E946C29FECE8FE190E10E9491
:105870008F09C0E08C2FDF91CF91089580E00895CB
:105880000C943E2CCF93C82F80918302882319F06B
:10589000813031F038C00E94B2258232B1F504C0A7
:1058A0000E94B225823261F48C2F0E94402C81111B
:1058B00004C08C2F0E948C2924C081E090E021C07C
:1058C0008C2F0E943E2C81111BC0C43189F018F42A
:1058D000CB3029F010C0C93259F0C83361F486EAE0
:1058E0009CE00E948F098AE19BE00E948F0908C01A
:1058F000109283020CC088E19BE00E948F0907C0D0
:1059000081E0817006C01092830280E002C080E0D6
:10591000F8CFCF9108958091A702089508959FB779
:10592000F894109286029FBF9091E602943009F09D
:1059300057C09091E9009F703091EC00232F2170A7
:1059400030FD20E8922B23E02093E9002091EB002A
:1059500020FF43C02091EE0027FF3FC0209184022A
:10596000222321F02091E80025FF37C01092840205
:1059700026E03091E80035FD15C03091E602343064
:1059800061F53091EB0035FD28C0215021F481E014
:105990008093840222C0EFE9FFE03197F1F700C065
:1059A0000000E7CF8093F1008091E80085FD0AC0F8
:1059B0008091E80080FFFCCF8091E8008E77809393
:1059C000E80006C08FB7F89421E0209386028FBFCD
:1059D0009F709093E90080E008959F709093E90094
:1059E0008FEF0895CF93DF9300D01F92CDB7DEB72E
:1059F0009091E602943019F589837B836A8382E073
:105A00008093E9008FEF9091E800815095FD06C0EA
:105A100095ED9A95F1F700008111F5CF8091E8009E
:105A200085FF0DC040E050E063E070E0CE010196DC
:105A30000E94842F8091E8008E778093E8000F9079
:105A40000F900F90DF91CF910895CF93DF93EC01EA
:105A50000E94672F823011F0843031F4BE0184E05F
:105A6000DF91CF910C94F22CDF91CF910895BC017E
:105A700083E00C94F22CCF93DF93EC010E94672F0C
:105A8000823011F08430D9F580911C01882339F0DF
:105A90008091E00287FF03C060E282E002C068E01C
:105AA00081E08093E9008FEF9091E800815095FDAF
:105AB00006C095ED9A95F1F700008111F5CF809120
:105AC000E80085FF1CC080911C01811105C040E0E9
:105AD00050E068E070E003C070E040E050E0CE01CC
