:100000000C9438090C947F090C947F090C947F0997
:100010000C947F090C947F090C947F090C947F0940
:100020000C947F090C947F090C947B310C944D3215
:100030000C944F270C947F090C947F090C947F0932
:100040000C947F090C947F090C947F090C947F0910
:100050000C947F090C94C3270C947F090C947F099E
:100060000C947F090C947F090C947F090C947F09F0
:100070000C947F090C947F090C947F090C947F09E0
:100080000C947F090C947F090C947F090C947F09D0
:100090000C947F090C947F090C947F090C947F09C0
:1000A0000C947F090C947F090C947F09960B980B94
:1000B000A30B9A0B9C0B9E0BA00BA20BA50BA70BE3
:1000C000A90BB40BAB0BAD0BAF0BB10BB30BB60B5A
:1000D000D51CD51C071D071D471DAC1EAC1EAC1E34
:1000E000671DAC1E081E081E781E811EAC1EA51EB4
:1000F000151E151E151E151E151E151E151E151E68
:10010000151E151E151E151E151E151E151E151E57
:10011000241E321E391E401E4A1E371F371F491F1C
:10012000491F401F491F491F491F371F371F451FC0
:10013000491F491F451FDD29CB29EF295328C82A0C
:10014000C82AC829C82AC82A1C2AC82A302AA82A84
:10015000C82AC82AC82AC82A642AC82AC82A4D2AEE
:10016000C82A082AC82AC82AC22AC22AC22AC22AD7
:10017000C22AC22AC22AC22AC22AC42AC82ADD29FD
:10018000C029C82AC82AC82AC82AC82AC82AC82AE8
:10019000C82AC82AC82AC42AC82AC82AC829C82AD4
:1001A000C02AC02AC02AC02AC02AC02AC02AC02AFF
:1001B000C02AC42ABA32E132D333E132D3332D33E9
:1001C0005033D333A633B53329001E001F0020005F
:1001D00021002200230024002500260027002D00F6
:1001E0002E002A002B0014001A000800150017002A
:1001F0001C0018000C00120013002F00300031000A
:10020000390004001600070009000A000B000D0069
:100210000E000F003300340000002800D75C0000FF
:100220001D001B000600190005001100100036001B
:10023000370038000000D85CE0000041E200000018
:1002400000002C000000000000000000E600E700B5
:100250006500E40000523A003B003C003D003E00D7
:100260003F004000410042004300440045004C0074
:100270003D04AA00A900A800B90001000100010086
:10028000520001004600BD5CBE5CBF5C0100AC00DA
:10029000AE00AB00010001000100500051004F0012
:1002A000BC5CC05C00000100E10000000100010036
:1002B000B200010001000100010001000100010085
:1002C00000000F08E0000000B300000000002C0850
:1002D00000000000000000000252035204520552C8
:1002E000000000000000000000000000000000000E
:1002F00000000000000000000000000000000000FE
:1003000000000000000000000000000000000000ED
:1003100000000000000000000000000000000000DD
:1003200000000000000000000000000000000000CD
:1003300000000000000000000000000000000000BD
:1003400000000000000000000000000000000000AD
:10035000000000410000000000000000000000005C
:10036000000000000000000000000052000000003B
:10037000000000000000000000000000000000007D
:10038000000000000000000000000000000000006D
:10039000000000000000000000000000000000005D
:1003A000000000000000000000000000000000004D
:1003B000000000000000000000000000000000003D
:1003C000000000000000000000000000000000002D
:1003D00000000000000000000000000000000041DC
:1003E000000000000000000000000000000000000D
:1003F00000000000000020000000000000000000DD
:1004000000000000000000000000000000000000EC
:1004100000000000000000000000000000000000DC
:1004200000000000000000000000000000000000CC
:1004300000000000000000000000000000000000BC
:1004400000000000000000000000000000000000AC
:10045000000000000000000000000000000000009C
:10046000000000000000000000000041000000004B
:10047000000000000000000000000000000000007C
:10048000010021000000000000000000000000004A
:10049000000000000000000000000000000000005C
:1004A000000000000000000000000000000000004C
:1004B000000000000000000000000000000000003C
:1004C000000000000000000000000000000000002C
:1004D000000000000000000000000000000000001C
:1004E000000000000000000000000000000000000C
:1004F00000000000000000410000000000000000BB
:1005000000000000000000000000000000002200C9
:1005100044454255473A2064697361626C65642EB4
:100520000A0044454255473A20656E61626C656435
:100530002E0A000A002530313662003A20002530AC
:100540003258000A722F6320303132333435363757
:1005500038394142434445460A007267626C696714
:1005600068742074696D65722064697361626C657A
:100570002E0A007267626C696768742074696D6521
:100580007220656E61626C65642E0A007267626C2F
:10059000696768742073657420687376205B4E4FBA
:1005A000454550524F4D5D3A2025752C25752C251B
:1005B000750A007267626C696768742073657420DD
:1005C000687376205B454550524F4D5D3A20257546
:1005D0002C25752C25750A007267626C6967687432
:1005E000207261696E626F7720736574206873761C
:1005F0003A2025642C25642C25642C25750A00726C
:1006000067626C696768742064697361626C6520F5
:100610005B454550524F4D5D3A207267626C696789
:1006200068745F636F6E6669672E656E61626C6584
:10063000203D2025750A007267626C696768742026
:10064000656E61626C65205B454550524F4D5D3A69
:10065000207267626C696768745F636F6E66696752
:100660002E656E61626C65203D2025750A007267FB
:10067000626C6967687420746F67676C65205B459E
:100680004550524F4D5D3A207267626C69676874DD
:100690005F636F6E6669672E656E61626C65203D93
:1006A0002025750A007267626C69676874206D6F37
:1006B0006465205B4E4F454550524F4D5D3A2025B5
:1006C000750A007267626C69676874206D6F646593
:1006D000205B454550524F4D5D3A2025750A00720A
:1006E00067626C696768745F696E697420726762BB
:1006F0006C696768745F636F6E6669672E6D6F649F
:1007000065203D20302E205772697465206465662F
:1007100061756C742076616C75657320746F20450B
:100720004550524F4D2E0A007267626C69676874BB
:100730005F696E6974206565636F6E6669672069BD
:1007400073206E6F7420656E61626C65642E0A00A2
:100750007267626C696768745F696E69742073742C
:10076000617274210A007267626C696768745F69FC
:100770006E69742063616C6C65642E0A0072676236
:100780006C696768745F636F6E6669672E73706506
:100790006564203D2025640A007267626C696768A1
:1007A000745F636F6E6669672E76616C203D2025ED
:1007B000640A007267626C696768745F636F6E6673
:1007C00069672E736174203D2025640A0072676298
:1007D0006C696768745F636F6E6669672E687565BC
:1007E000203D2025640A007267686C696768745F41
:1007F000636F6E6669672E6D6F6465203D202564AA
:100800000A007267626C696768745F636F6E66691D
:10081000672E656E61626C65203D2025640A00725A
:1008200067626C696768745F636F6E66696720658D
:1008300070726F6D0A0000047F3F1F6432146432CF
:1008400014783C1E1E140A052223252628292A2C4A
:100850002D2F3032333536383A3B3D3E404243450A
:1008600047494A4C4E5051535557595A5C5E606245
:10087000646668696B6D6F71737577797B7D7F8155
:10088000838587898A8C8E90929496989A9C9E9F55
:10089000A1A3A5A7A8AAACAEAFB1B3B4B6B8B9BB73
:1008A000BCBEBFC1C2C3C5C6C7C9CACBCCCDCED0E2
:1008B000D1D2D2D3D4D5D6D7D7D8D9D9DADADBDBCF
:1008C000DBDCDCDCDCDCDDDDDDDDDCDCDCDCDCDB66
:1008D000DBDBDADAD9D9D8D7D7D6D5D4D3D2D2D1AF
:1008E000D0CECDCCCBCAC9C7C6C5C3C2C1BFBEBCA2
:1008F000BBB9B8B6B4B3B1AFAEACAAA8A7A5A3A113
:100900009F9E9C9A98969492908E8C8A89878583D4
:10091000817F7D7B79777573716F6D6B69686664B4
:1009200062605E5C5A5957555351504E4C4A494784
:10093000454342403E3D3B3A3836353332302F2D29
:100940002C2A292826252322FFAA7F5540000000B3
:10095000000000000000000101010101010101018E
:10096000020202020202020203030303030303045E
:100970000404040405050505050606060606070722
:100980000707080808080909090A0A0A0B0B0B0CD3
:100990000C0C0D0D0D0E0E0E0F0F1010101111126C
:1009A0001213131414151516161717181819191AE7
:1009B0001A1B1C1C1D1D1E1F1F2021212223232446
:1009C000252526272828292A2B2C2C2D2E2F30317F
:1009D0003132333435363738393A3B3C3D3E3F408F
:1009E0004142434445464748494B4C4D4E4F505277
:1009F0005354555758595A5C5D5E6061636465672E
:100A0000686A6B6C6E6F7172747677797A7C7D7FB1
:100A10008182848687898B8D8E9092949597999BFD
:100A20009D9FA1A2A4A6A8AAACAEB0B2B4B6B9BB11
:100A3000BDBFC1C3C5C8CACCCED0D3D5D7DADCDEE2
:100A4000E1E3E6E8EAEDEFF2F4F7F9FCFF0A00254E
:100A500030325820006B6579626F6172645F726535
:100A6000706F72743A20000A0025303258006B65AE
:100A700079626F6172645F7365745F6C65643A205C
:100A80000064656C5F6B65795F6269743A206361CD
:100A90006E27742064656C3A20253032580A006154
:100AA00064645F6B65795F6269743A2063616E2785
:100AB00074206164643A20253032580A003F0043B4
:100AC0003E20004C25640A0074696D65725F726592
:100AD0006164333228293A202530346C580A006B7F
:100AE00065796D61705F636F6E6669672E6E6B729C
:100AF0006F3A2025580A006B6579626F6172645FF6
:100B000069646C653A2025580A006B6579626F61EB
:100B100072645F70726F746F636F6C3A2025580A4D
:100B200000686F73745F6B6579626F6172645F6C8C
:100B300065647328293A2025580A000A092D205394
:100B40007461747573202D0A004743433A20342E94
:100B5000392E32204156522D4C4942433A20312EF3
:100B6000382E3073766E204156525F415243483AD8
:100B700020617672350A004F5054494F4E533A2047
:100B80004C5546412045585452414B455920434FFE
:100B90004E534F4C4520434F4D4D414E44204E4BFC
:100BA000524F20343039360A004255494C443A20DD
:100BB00022302E362E3431362D372D676132356492
:100BC00064352D646972747922202832313A3132C9
:100BD0003A3230204A756C20313520323031392993
:100BE0000A005649443A2030784645454428534146
:100BF00054414E29205049443A203078363036301E
:100C0000284748363029205645523A20307830302F
:100C100030330A00444553433A20363025206B6573
:100C200079626F6172642077697468206261636BB6
:100C30006C6967687420616E6420575332383132B2
:100C400020737570706F72740A000A092D20566542
:100C50007273696F6E202D0A000A092D20436F6E92
:100C6000736F6C65202D0A4553432F713A097175D6
:100C700069740A000A092D204D61676963202D0AF5
:100C8000443A094465627567204D65737361676511
:100C900020546F67676C650A583A094D6174726930
:100CA00078204465627567204D6F646520546F67D6
:100CB000676C65202D2053686F77206B65797072A3
:100CC000657373657320696E206D61747269782035
:100CD000677269640A4B3A094B6579626F617264A5
:100CE00020446562756720546F67676C65202D200E
:100CF00053686F77206B65797072657373207265C6
:100D0000706F72740A4D3A094465627567204D6FC1
:100D100075736520546F67676C650A563A095665A6
:100D20007273696F6E0A533A095374617475730A6A
:100D3000433A09416374697661746520436F6E7349
:100D40006F6C65204D6F64650A46312D4631303A2F
:100D50000953776974636820746F204C61796572F8
:100D600020302D392028463130203D204C30290AB2
:100D7000302D393A0953776974636820746F204CB9
:100D80006179657220302D390A47524156453A093A
:100D900053776974636820746F204C6179657220A1
:100DA000302028616C7465726E617465290A423A5C
:100DB000094A756D7020746F20426F6F746C6F619B
:100DC0006465720A4553433A094A756D7020746F21
:100DD00020426F6F746C6F616465722028616C745F
:100DE00065726E617465290A453A095072696E74BC
:100DF00020454550524F4D2053657474696E67739A
:100E00000A4253504143453A09436C65617220459B
:100E10004550524F4D0A4E3A094E4B524F20546F97
:100E200067676C650A000A002575002E6C6576659B
:100E30006C3A20000A002575002E656E61626C65B3
:100E40003A20000A0025303258006261636B6C69F9
:100E50006768745F636F6E6669672E7261773A20A8
:100E6000000A002575002E6E6B726F3A20000A0092
:100E70002575002E737761705F6261636B736C61BF
:100E800073685F6261636B73706163653A20000A27
:100E9000002575002E737761705F67726176655FFC
:100EA0006573633A20000A002575002E6E6F5F6738
:100EB00075693A20000A002575002E737761705F0E
:100EC00072616C745F726775693A20000A0025755B
:100ED000002E737761705F6C616C745F6C6775690D
:100EE0003A20000A002575002E636170736C6F63F1
:100EF0006B5F746F5F636F6E74726F6C3A20000A81
:100F0000002575002E737761705F636F6E74726F6A
:100F10006C5F636170736C6F636B3A20000A00252D
:100F2000303258006B65796D61705F636F6E666912
:100F3000672E7261773A20000A002575002E6D6FCA
:100F40007573653A20000A002575002E6B6579627D
:100F50006F6172643A20000A002575002E6D61747D
:100F60007269783A20000A002575002E656E61626C
:100F70006C653A20000A00253032580064656275BD
:100F8000675F636F6E6669672E7261773A20000A49
:100F90000025750064656661756C745F6C617965C8
:100FA000723A20003F004E4B524F3A206F66660A5D
:100FB000004E4B524F3A206F6E0A000A6D6F7573E8
:100FC000653A206F66660A000A6D6F7573653A2090
:100FD0006F6E0A000A6B6579626F6172643A206F06
:100FE00066660A000A6B6579626F6172643A206F07
:100FF0006E0A000A6D61747269783A206F66660A3B
:10100000000A6D61747269783A206F6E0A000A6492
:10101000656275673A206F66660A000A64656275E4
:10102000673A206F6E0A000A0A4A756D70696E672A
:1010300020746F20626F6F746C6F616465722E2E06
:101040002E2000433E2000436C656172696E67206C
:10105000454550524F4D0A006565636F6E6669677E
:101060003A0A006261636B6C696768742073746527
:10107000703A2025750A006261636B6C6967687459
:101080002064697361626C650A006261636B6C69FC
:1010900067687420656E61626C650A006261636BEB
:1010A0006C6967687420746F67676C653A20257592
:1010B0000A006261636B6C696768742064656372BF
:1010C000656173653A2025750A006261636B6C691E
:1010D00067687420696E6372656173653A2025756F
:1010E0000A005B735D004B6579626F617264207307
:1010F000746172742E0A005B575D005B535D005B88
:10110000525D005B445D005B435D00040330000002
:10111000000A03470048003600300000000C03536B
:10112000004100540041004E00000004030904097E
:10113000025B00030100A0FA0904000001030101A1
:101140000009211101000122400007058103080068
:101150000A09040100010300000009211101000136
:101160002271000705820320000A0904020002031D
:10117000000000092111010001222200070583035C
:1011800020000107050303200001120110010000E7
:101190000008EDFE60600300010203010631FF0953
:1011A00074A1010975150026FF00952075088102BC
:1011B0000976150026FF00952075089102C00501EB
:1011C0000980A10185031601002603001A81002A67
:1011D0008300751095018100C0050C0901A10185EE
:1011E00004160100269C021A01002A9C0275109523
:1011F000018100C005010906A1018505050719E067
:1012000029E71500250195087501810205081901D6
:101210002905950575019102950175039101050751
:10122000190029EF1500250195F075018102C0050F
:10123000010906A101050719E029E7150025019517
:1012400008750181029501750881010508190129B8
:101250000595057501910295017503910105071921
:101260000029FF150026FF00950675088100C000C3
:1012700011241FBECFEFDAE0DEBFCDBF04B603FE00
:1012800027C080918D0290918E02A0918F02B09123
:1012900090028730904BA740B04BD1F410928D0252
:1012A00010928E0210928F021092900214BE84B798
:1012B000877F84BF0FB6F894A895809160008861FD
:1012C00080936000109260000FBEE0E0F8E30995A3
:1012D00011E0A0E0B1E0E6ECF9E602C005900D9265
:1012E000A436B107D9F722E0A4E6B1E001C01D920F
:1012F000AD38B207E1F70E94942E0C94E1340C94BF
:101300000000FF93EF93E0916401F0916501309745
:1013100009F00995EF91FF910895FC0185918030C6
:1013200011F0EFDFFBCF0895FF27E0E230E247FF47
:101330000CC0419597FF09C0EDE2609570958095CE
:101340009095611D711D811D911D27FF02C0219582
:1013500030E350E2AA27660F771F881F991FAA1F44
:10136000A41710F0A41B63955A95A9F7AA3008F0AA
:10137000A95FA05DAF93F395611571058105910596
:1013800041F7ED3211F4EF93F395F21718F43F9310
:10139000F395FBCF8F91B5DFFA95E1F70895E991C9
:1013A000F9918591803021F0853219F0AADFF9CFCB
:1013B000089520E0E89455915532C1F3503311F46B
:1013C000689455915A3348F4505390F3220F022EEB
:1013D000220F220F200D250FF4CF0EF421958991B5
:1013E0009991533619F3533729F1533559F1BC010B
:1013F00088279927E8945C3621F48991999168941B
:101400005591543639F446EF7EF077FF0DC08FEFDB
:101410009FEF0AC055374AE039F0583540E121F0D6
:10142000523642E009F00895FF93EF937DDFEF918C
:10143000FF91B7CFFF93EF93FC0181918030B9F317
:1014400060DFFBCFFF93EF9368DFF1CFDF93CF93A4
:10145000CDB7DEB72596A3DFCF91DF9108950C9429
:10146000C40F229A08950E94C30F0C94310A81FF81
:1014700002C02A9808952A9A089581E0089581E08B
:1014800008950C943F0A1F93CF93DF9300D000D0B0
:101490001F92CDB7DEB749835A832091A00189817D
:1014A0009A81211112C0662349F00E945C24182FF2
:1014B000682F89819A810E94012403C00E943024F0
:1014C000182F69817A81812F04C00E945C24698170
:1014D0007A810F900F900F900F900F90DF91CF9126
:1014E0001F910C94160DFC01408151816281738122
:1014F00084810C94430A0C942F0AE82FE295EF7034
:10150000F0E032A1282F2F7081E090E001C0880F19
:101510002A95EAF78095832382A30895CF92DF92DC
:10152000EF92FF92853030F4811105C090918000D8
:101530009F7D04C084E09091800090629093800031
:10154000282F30E0AFEFBFEF0E947234DC01CB01F7
:1015500042E0B695A795979587954A95D1F78C3730
:1015600024E19207A105B10528F469E070E00E942A
:10157000223427C08A50974DAF4FBF4F6627782F30
:10158000892F9A2F25EF38E241E050E00E944A343B
:1015900069017A01CA01B9010E9406349B01AC01BC
:1015A000C701B6010E940634BB27A92F982F872FA9
:1015B000009721E0A207B10511F0BC0102C06FEF56
:1015C0007FEF70938B0060938A00FF90EF90DF9025
:1015D000CF900895269A86E30E947D0A82E2809346
:1015E000800089E1809381008FEF9FEF90938700C7
:1015F000809386000C941D2B0E94C125811102C08E
:101600000E9444260E94EA0A0C94330A0C94370A7A
:1016100008950E94271F0E94080B2FEF84E39CE08F
:10162000215080409040E1F700C000000C94E92771
:101630000F931F93CF93DF93EC010E94730A8C01E9
:10164000BE010E94410A882329F1BE01C8010E94FF
:10165000E3188823F9F00A3C8CE51807E9F008F054
:1016600019C1033C8CE51807F1F040F505318CE514
:10167000180708F0AEC002308CE51807B0F5011568
:101680008CE5180709F082C0CA81CC2309F4C4C1D3
:101690000E94090BC0E0C0C1CA81CC2309F4BCC1BF
:1016A0000E94AA14F7CFCA81CC2309F4B5C10E94C5
:1016B000DC248272B9F00E94DD16ECCF063C8CE58A
:1016C000180709F4BBC008F0CBC0043C8CE5180730
:1016D00009F0BBC0CA81CC2309F49EC10E94DC245E
:1016E000827249F30E94D016D5CF8A81882309F4EB
:1016F00050C00E94C125811102C00E9444260E9450
:10170000D42590E090937E0280937D02F801E3500F
:10171000FC45E231F10530F4EA5AFF4F80917D0239
:101720000C946C3480917D02816027C0826025C05A
:10173000846023C0806121C080621FC080641DC09E
:1017400080681BC08460886018C08E7F16C08D7F43
:1017500014C08B7F12C08F7E10C08F7D0EC08F7B18
:101760000CC08F770AC08B7F877F07C087FB22273B
:1017700020F991E0922790FB87F980937D02809178
:101780007D020E94D8250E94271F84CF01301C456E
:1017900039F0CE01DF91CF911F910F910C943D0A4A
:1017A000CA81CC2309F438C180913302C82FC09577
:1017B000C170C0FB80F980933302CC2329F082E210
:1017C00095E00E948D0966CF80E195E00E948D0929
:1017D00023C106318CE5180731F50E94DC24282F3F
:1017E0008A814091100150911101882379F02A7A61
:1017F00091E009F490E090936601911102C069E2D2
:1018000001C065E3CA010E94CD260AC0809166012D
:10181000811102C069E201C065E3CA010E94D826B5
:101820000E94282537CF023C1C4509F0B2CFCA815F
:10183000CC2309F4F1C00E9490172CCFCA81CC238D
:1018400009F4EAC00E946E1425CF053C1C4509F03E
:10185000A0CFCA81CC2309F4DFC00E9461141ACF43
:10186000CA81083C8CE5180731F4CC2309F4D4C0B4
:101870000E948C140FCF093C1C4530F4CC2309F492
:10188000CBC00E947D1406CFCC2309F4C5C00E94B2
:101890009B1400CF013D8CE5180779F4CA81CC2355
:1018A00009F4BAC00E9497128F3028F00E94971254
:1018B000843108F417CF8FE00EC0023D8CE5180785
:1018C00008F058C00D3C8CE5180741F4CA81CC23C0
:1018D00009F4A2C081E00E94E016DCCE0E3C8CE54B
:1018E0001807B0F40B3C8CE5180739F4CA81CC23F7
:1018F00009F492C00E949F12CDCE0C3C1C4509F009
:1019000048CFCA81CC2309F487C00E94B012C2CE4E
:10191000CA810F3C8CE5180771F4CC2309F47CC014
:101920000E949712863028F00E949712883008F49F
:10193000D9CE86E0D0CF003D1C4570F4CC2309F40D
:101940006BC00E949712823028F00E949712853057
:1019500008F4C8CE82E0BFCFCC2309F45DC00E945A
:101960009712893028F00E9497128E3008F4BACE70
:1019700089E0B1CF053D8CE5180731F4CA81CC234D
:1019800009F44AC083E2A7CF063D8CE5180730F57D
:10199000CA81033D8CE5180721F4CC23E9F188E1E5
:1019A0009ACF043D1C4568F4CC23B1F10E949712F4
:1019B000853128F00E949712873108F493CE85E193
:1019C0008ACFCC2349F10E949712893128F00E94D6
:1019D0009712823208F486CE89E17DCF0D3D8CE5E9
:1019E000180739F4CA81CC23B9F082E00E943E2F57
:1019F00051CE0E3D8CE5180731F4CA81CC2361F03D
:101A00000E94442647CE0C3D1C4509F0C2CECA8137
:101A1000CC2311F080E0EACF8C2FDF91CF911F9182
:101A20000F91089580E090E0089508959EE0799FD9
:101A3000F001112496E4899FE00DF11D1124E60FB9
:101A4000F11DEE0FFF1FE853FE4F8591949108950D
:101A5000880F991FFC01ED5CFA4F859194910895D0
:101A6000CF93DF930E94160D0E94230FEC01811586
:101A700021E5920708F042C0811560E5960708F05D
:101A800031C1883E910500F5803E910508F0D7C12F
:101A9000883A910570F4853A910508F0A6C0813026
:101AA000910509F4CCC108F47DC1049708F0C7C1C1
:101AB00079C18F3B910508F4A3C0803C910508F4DF
:101AC00071C1805C9109FDC0C11580E3D80780F425
:101AD000C11590E2D90708F0F2C0C03FD10508F463
:101AE00061C1CF3FD10511F008F0A9C1D065A7C1F0
:101AF000C11520E4D20708F0F2C0E7C0811569E5FE
:101B0000960760F5C11588E5D80708F037C1C115FB
:101B100094E5D90778F4C11523E5D20708F013C17D
:101B2000C11562E5D60708F0F8C0DC2FCC27C16FDD
:101B3000D06A85C1C11585E5D80708F41AC1C11559
:101B400096E5D90708F02EC18C2F0E94A00F8F7147
:101B5000C82FD0E0DC2FCC27D06271C18D3B2CE5A3
:101B6000920709F416C1F0F4CB3B8CE5D80709F4D1
:101B70000AC108F00BC1C1152AE5D20708F012C14D
:101B80008C2F8F700E94A00F94E0D695C7959A95E0
:101B9000E1F7CF70D0E0DC2FCC27D06A8F70806E59
:101BA000C82B4DC1803C9C4509F4F9C0C13C8CE573
:101BB000D80760F4CE3B9CE5D90709F4EDC0CF3BD4
:101BC000DC4509F0EFC0C0E0D2ED39C1CE0190563E
:101BD0008115904208F0E6C08D2F8F710E94A00FF2
:101BE000DD27D0628F71D82B2AC1853A910509F47F
:101BF000DCC0863A910509F0DBC0C2E8D0E41FC121
:101C0000883A910509F4D7C0893A910509F4D6C0FC
:101C10008A3A910509F4D5C08B3A910509F4D4C0EC
:101C20008C3A910509F4D3C08B3B910509F4D2C0DD
:101C30008C3B910509F4D1C08D3A910509F4D0C0CF
:101C4000803B910509F4CFC08E3A910509F4CEC0CE
:101C50008F3A910509F4CDC0813B910509F4CCC0C0
:101C6000823B910509F4CBC0833B910509F4CAC0BE
:101C7000843B910509F4C9C0853B910509F4C8C0AE
:101C8000863B910509F4C7C0873B910509F4C6C09E
:101C9000883B910509F4C5C0893B910509F4C4C08E
:101CA0008D3B910509F4C3C08E3B910509F4C2C078
:101CB0008A3B910509F4C1C0C0E0D4E4C0C0CE01A4
:101CC0009F700E94280DEC01BAC0CE019927D3FF66
:101CD00003C0EC01D86CB3C0EC01D06CB0C0DF70B5
:101CE000D06AADC0837021E030E002C0220F331F04
:101CF0008A95E2F73C68CE0174E0969587957A95CF
:101D0000E1F78370382BCF70C695C69580E2C89FE7
:101D1000E0011124C22BD32B92C04C2F469546953F
:101D200090E2499FA0011124C370DD2721E030E03B
:101D3000C90102C0880F991FCA95E2F7EC01C42BB4
:101D4000D52BDC687CC04C2F4695469580E2489F99
:101D5000A0011124C370DD2721E030E0C90102C0D9
:101D6000880F991FCA95E2F7EC01C42BD52BDA68CE
:101D700066C0DC2FCC27C46FD06A61C0DC2FCC27B3
:101D8000C06FD06A5CC0C0E0D4ED59C0C0E0D5EDF2
:101D900056C0C0E0D1ED53C0C0E0D0ED50C0C0E0AF
:101DA000D3ED4DC0C0E0D0E04AC0C1E8D0E447C0A8
:101DB000C3E8D0E444C0C2EED4E441C0C9EED4E4E8
:101DC0003EC0CAEED4E43BC0C5EBD4E438C0C6EB99
:101DD000D4E435C0C3EBD4E432C0C4EBD4E42FC0A8
:101DE000C7EBD4E42CC0CCECD4E429C0CDECD4E4D3
:101DF00026C0C3E8D5E423C0CAE8D5E420C0C2E9C0
:101E0000D5E41DC0C4E9D5E41AC0C1E2D6E417C0C8
:101E1000C3E2D6E414C0C4E2D6E411C0C5E2D6E4FD
:101E20000EC0C6E2D6E40BC0C7E2D6E408C0CFE6D7
:101E3000D4E405C0C0E7D4E402C0CAE2D6E4CE01CF
:101E4000DF91CF9108958238910549F1B0F4813343
:101E5000910509F458C048F48932910509F44EC03F
:101E60008A32910509F454C008958533910509F427
:101E700040C08933910599F00895833E910529F179
:101E800038F4803E910591F0823E9105A1F00895CD
:101E9000863E9105F9F0873E910531F10895209134
:101EA0007D0220FD3AC021FD38C0089580917D0259
:101EB00080FD35C032C080917D0282FF32C08091AA
:101EC0007D0284FD30C083EE39C080917D0282FDA9
:101ED00028C0F5CF80917D0283FF27C080917D02CD
:101EE00084FD21C087EE2AC080917D0283FD1DC044
:101EF000F5CF80917D0285FD1AC01BC080917D02C7
:101F000085FD17C014C080917D0286FD14C015C0E8
:101F100080917D0286FD11C00EC080EE0FC089E366
:101F20000DC082EE0BC080E009C086EE07C089E2DA
:101F300005C085E303C08AE201C081E390E0089513
:101F400090917D0292FF0DC0282F2871283019F43E
:101F5000877F846006C0282F2471243011F48B7F82
:101F6000886093FF0DC0282F2871283119F4877ECF
:101F7000846106C0282F2471243111F48B7E88617E
:101F800094FD877E089508950895E82FF0E0EE0F00
:101F9000FF1FE959FE4F808191810895CF92DF9212
:101FA000EF92FF920F931F93CF93DF9383E495E01B
:101FB0000E948D0987E6E82E81E0F82EC0E0D0E08F
:101FC0009EE3C92E95E0D92E05E315E0DF93CF936C
:101FD000DF92CF920E94260A8BE395E00E948D0942
:101FE000F701819191917F010E94A7259F938F9383
:101FF0001F930F930E94260A83E395E00E948D09A8
:1020000021968DB79EB708960FB6F8949EBF0FBE67
:102010008DBFC530D105D1F6DF91CF911F910F91C2
:10202000FF90EF90DF90CF900895ABE2B1E041E0F8
:1020300050E025E02A0F8D91E82FE295EF70F0E057
:1020400031A18F70BA0102C0660F771F8A95E2F73F
:10205000CB01962F9095932391A392A1892B82A3D4
:102060002A13E9CFADE1B1E041E050E02EE02A0FC4
:102070008D91E82FE295EF70F0E031A18F70BA01F9
:1020800002C0660F771F8A95E2F7CB01962F9095D5
:10209000932391A392A1892B82A32A13E9CFE1E78D
:1020A000F1E0A7E6B1E0119211921D921D9271E04C
:1020B000EB37F707C1F785E00E94F7100C94FC0A94
:1020C0005F926F927F928F929F92AF92BF92CF92C8
:1020D000DF92EF92FF920F931F93CF93DF930BE268
:1020E00011E0A1E7B1E0612CEE24E394F12C5D0155
:1020F0008D909C90119711961C921E92E8018991E7
:102100008E01E82FE295EF70F0E091A18F70A701AA
:1021100001C0440F8A95EAF7892F842B81A382A1FD
:10212000542E5094852182A3D0EADA95F1F78DE1FF
:10213000C82E81E0D82E80E090E0E60179906E0113
:10214000272D22952F7030E0E90168A12D913C9157
:10215000119770E0D72DDF7002C075956795DA95FD
:10216000E2F760FD08C0B701082E02C0660F771FB6
:102170000A94E2F702C060E070E0262B372B11963C
:102180003C932E9301968E309105B9F681A1D52D01
:10219000D823D1A382A1482B42A3129681E0F50156
:1021A000208131818216930609F480E0682AF1E0EB
:1021B000AB37BF0709F09BCF262D45E067E671E0FE
:1021C00081E791E00E94F8100E947B0A862DDF9142
:1021D000CF911F910F91FF90EF90DF90CF90BF9024
:1021E000AF909F908F907F906F905F90089508952B
:1021F000FF920F931F93CF93DF93F82E092F162F83
:10220000D72FC42F222349F081E080937D010E94C3
:10221000812790937C0180937B0180917D018823AD
:10222000D9F080917B0190917C010E9499270697BB
:1022300098F0EF2DF02FA12FBD2F80E090E04C2FD4
:1022400050E08417950734F4219131912D933D93FB
:102250000196F7CF10927D01DF91CF911F910F91E1
:10226000FF900895CF92DF92EF92FF920F931F930A
:10227000CF93DF937B01282F382FE82FF0E0F11068
:1022800006C0E35BF64F6491762F862F7BC00F2D3F
:1022900010E046E0649FC0011124CFEFD0E0BE0102
:1022A0000E942234AB016BEA6403C001659F900D6C
:1022B00011248E0D911D8E0D911D982F990F890F50
:1022C000BE01601B710B6E9FD0016F9FB00D7E9F92
:1022D000B00D11249B2F8F9DB0011124672F7727FC
:1022E0007E01E61AF70AEE9EB001EF9E700DFE9E8B
:1022F000700D11246E01C81AD108C09E7001C19ED4
:10230000F00CD09EF00C11240F2D1127C01BD10B07
:10231000CE9F8001CF9F100DDE9F100D1124812FC5
:102320004230510591F04CF441155105E1F0413036
:102330005105B9F4822F272F16C04430510569F09A
:1023400044F04630510579F00CC0822F2B2F912F8D
:102350000AC02B2F932F872F06C08B2F922F212F50
:1023600002C08B2F972FE22FF0E0E35BF64F7491C2
:10237000E82FF0E0E35BF64F6491E92FF0E0E35BD8
:10238000F64F8491DF91CF911F910F91FF90EF90C5
:10239000DF90CF9008950895CF93DF93762FE901D2
:1023A000682F842F0E943211798368838A83DF919A
:1023B000CF91089580915C02282F269530E0211559
:1023C000310519F48170826005C02532310524F091
:1023D0008170886480935C02089588E090E00C949A
:1023E000A134CF93DF9300D000D0CDB7DEB7AB01DF
:1023F000BC0149835A836B837C830E94DA11498133
:102400005A816B817C8188E090E00F900F900F9053
:102410000F90DF91CF910C94BF34ECE5F2E083E0B4
:10242000808311828FEF8283838314826081718124
:10243000828193810C94F1118091330280FF08C056
:102440008FE198E09F938F930E94260A0F900F9040
:102450008091330280FF0FC080915C0281701F92D7
:102460008F9382E098E09F938F930E94260A0F90AB
:102470000F900F900F908091330280FF0FC08091DA
:102480005C0286951F928F9387EE97E09F938F93C0
:102490000E94260A0F900F900F900F9080913302A8
:1024A00080FF0EC080915D021F928F938DEC97E0AC
:1024B0009F938F930E94260A0F900F900F900F907A
:1024C0008091330280FF0EC080915E021F928F9335
:1024D00083EB97E09F938F930E94260A0F900F90B3
:1024E0000F900F908091330280FF0EC080915F02A9
:1024F0001F928F9389E997E09F938F930E94260AFA
:102500000F900F900F900F908091330280FF0EC0BC
:10251000809160021F928F938DE797E09F938F9336
:102520000E94260A0F900F900F900F9008958091AF
:102530005C0280FF02C08695089580E00895809136
:102540006002833018F48F5F8093600260915C02B8
:1025500070915D0280915E0290915F020C94F11186
:1025600080916002882319F081508093600260910D
:102570005C0270915D0280915E0290915F020C940A
:10258000F1116091040170E080915C0280FF0AC04B
:102590008091820123E0829FC00111248F599D4FB9
:1025A0000C9473188091810190910301891780F731
:1025B000E82FF0E09F01220F331FE20FF31FEF59C6
:1025C000FD4F1182108212828F5FF0CF90915C02DA
:1025D00090FF16C09091810120910301921770F431
:1025E000E92FF0E0DF01AA0FBB1FEA0FFB1FEF5935
:1025F000FD4F8183608342839F5FF0CF0C94C112B3
:102600000895CF93DF9300D01F92CDB7DEB790919E
:102610005C0290FF0AC09E012F5F3F4F0E94CC11C9
:102620004B8169818A810E94E6120F900F900F9072
:10263000DF91CF910895CF93DF93EC01EC81F0E02F
:10264000E85BF74F4491ECE5F2E0628181810E9402
:1026500001138C818F5F8C83DF91CF910895CF938D
:10266000DF93EC01ECE5F2E0438162818C810E9412
:1026700001138C818F5F8C83DF91CF9108950F932D
:102680001F93CF93DF9300D01F92CDB7DEB78C019D
:1026900080917E0181110AC09E012F5F3F4F4FEF55
:1026A0006FEF0E94CC118A8180937E01F8018481B2
:1026B000813051F028F0823061F440917E010AC0EF
:1026C00080917E0140E007C060917E0140E080E0A3
:1026D00003C040E080E060E00E94E612F80124813F
:1026E00030E0C901019663E070E00E9436348483D3
:1026F0000F900F900F90DF91CF911F910F91089540
:102700006F927F928F929F92AF92BF92CF92DF9201
:10271000EF92FF920F931F93CF93DF9300D000D0DF
:10272000CDB7DEB7182FD62E042FB22E90915C02B3
:1027300090FFAAC0E92FE695AE2FB0E0A05DBE4F96
:102740008C9180938A019E7F923061F49E012F5F6D
:102750003F4F812F0E94CC114B8169818A810E9459
:10276000E61260C0823019F400915F025BC08630CF
:1027700019F410915D0256C08930D9F3893109F0FE
:1027800051C0E9518E2F80958170C82EE695F0E0FA
:10279000E85BF64FE590F490A12CFF2428ED822E03
:1027A00025E0922E60910201A616D0F56A2C712CBC
:1027B0006E9CC0016F9C900D7E9C900D112470E06A
:1027C0000E942234812FCC2011F0860F01C0861B7D
:1027D0009091330290FF13C0FF92EF921F92CF921D
:1027E0001F928F931F92AF929F928F928C830E9421
:1027F000260A0FB6F894DEBF0FBECDBF8C81909134
:102800008101690E711C9301220F331F260D371DA4
:102810002F593D4F402F6D2D0E94CC11A394C2CF54
:102820000E94C11210935D02D0925E0200935F027B
:10283000BB20C9F060915C0270915D0280915E02E4
:1028400090915F020E94F11180915F021F928F931D
:1028500080915E021F928F9380915D021F928F93F1
:1028600083EB95E008C01F920F931F92DF921F9297
:102870001F938CE895E09F938F930E94260A0FB6D2
:10288000F894DEBF0FBECDBF0F900F900F900F904A
:10289000DF91CF911F910F91FF90EF90DF90CF903C
:1028A000BF90AF909F908F907F906F900895ECE5D0
:1028B000F2E09181282F438162818AE0890F0C9494
:1028C000801381E00C945714ECE5F2E09181282FFD
:1028D0004381628186EF890F0C94801381E00C9410
:1028E0006414ECE5F2E0628121E1620F08F46FEF1D
:1028F000282F438181810C94801381E00C94711402
:10290000ECE5F2E0628121E1621B08F460E0282F2F
:10291000438181810C94801381E00C948014ECE558
:10292000F2E0438121E1420F08F44FEF282F62814A
:1029300081810C94801381E00C948F14ECE5F2E01B
:10294000438121E1421B08F440E0282F628181810C
:102950000C94801381E00C949E1420E00C9480135E
:10296000FF920F931F93CF93DF93EC01F12C0FEFA6
:1029700010E060910201F616E8F42091810130E048
:102980002F0D311DC901880F991F280F391F2F598D
:102990003D4F70E0C8010E943634962F8C814091E3
:1029A0005F0260915E02F99E800D11240E94CC119D
:1029B000F394DFCF0E94C1129A818C8190FF02C0F4
:1029C0008F5F01C081508C83DF91CF911F910F9158
:1029D000FF900895BF92CF92DF92EF92FF920F93F4
:1029E0001F93CF93DF93FC01828180FF02C00FEF22
:1029F00001C001E010E0809102011817E0F5C12E3E
:102A0000D12C80918101E601C80FD11DCE01880F24
:102A1000991FC80FD91FCF59DD4F198218821A820A
:102A200034E0E32EF12CB12C809180018B0D87FFD7
:102A300003C090910201890F082E000C990BC81653
:102A4000D90691F480915F028E9DA0018F9D500D5B
:102A5000112455954795559547959E0160915E02C5
:102A600080915D020E94CC11B00EF1E0EF1AF108E6
:102A7000D9F61F5FC0CF0E94C11280918001013042
:102A800031F4811102C080910201815007C090E0B1
:102A900001966091020170E00E94363480938001BB
:102AA000DF91CF911F910F91FF90EF90DF90CF902A
:102AB000BF900895CF938091810190910301891770
:102AC00070F4E82FF0E09F01220F331FE20FF31F95
:102AD000EF59FD4F1182108212828F5FF0CFC0E05C
:102AE00060910201C617B8F5EC2FF0E070E0CF015D
:102AF0000E94363440918101480F80917F01082E59
:102B0000000C990B50E0E817F907C4F0209101017F
:102B1000022E000C330B2E173F0784F09A01220F70
:102B2000331F240F351F2F593D4F40915F02609195
:102B30005E0280915D020E94CC110BC0FA01EE0F83
:102B4000FF1F4E0F5F1FFA01EF59FD4F11821082D8
:102B50001282CF5FC5CF0E94C112209100018091E7
:102B60007F01820F80937F0190910101920F9093DA
:102B7000010119165CF4082E000C990B409102011A
:102B800050E041505109841795071CF0219520937E
:102B90000001CF9108950F931F93CF93DF938C0182
:102BA000FC018481958101968170992795838483A6
:102BB000C0E0D5E580910201C817F8F420918101A9
:102BC00030E02C0F311DC901880F991F280F391FC4
:102BD0002F593D4F4C2F4695F80184819581840FE4
:102BE000911D817040915F0260915E028D9F802DEA
:102BF00011240E94CC11CF5FDDCFDF91CF911F91C7
:102C00000F910C94C1120F931F93CF93DF93EC019C
:102C100000E010E080910201282F30E00217130736
:102C200024F5909181019801290F311DA901440FCC
:102C3000551F240F351F2F593D4F869590E04C812D
:102C4000081719071CF4442331F002C0411103C0D6
:102C500040915F0201C040E060915E0280915D02A0
:102C60000E94CC110F5F1F4FD5CF0E94C1122C8143
:102C700030E02F5F3F4F217033272C83DF91CF91BE
:102C80001F910F91089560915C02669570E04BE092
:102C900050E085E091E00E948C34892B19F481E0AA
:102CA00080938B010E9481279093840180938301FC
:102CB0008091330280FF08C083E795E09F938F9354
:102CC0000E94260A0F900F90089510928B01809118
:102CD000330280FF08C08AE595E09F938F930E949E
:102CE000260A0F900F90089590915C0290FF4CC0BF
:102CF0009170811102C0926006C0853210F0986414
:102D000002C0880F982B90935C02662391F060912B
:102D10005C0270915D0280915E0290915F020E9460
:102D2000F11180915C0286951F928F9383EC96E05F
:102D300007C080915C0286951F928F9385EA96E08A
:102D40009F938F930E94260A0F900F900F900F90E1
:102D500060915C02669570E04BE050E085E091E0A8
:102D60000E948C34892B19F00E94651602C00E94C3
:102D7000431681E08093860140915F0260915E027C
:102D800080915D020C94AD140895682F90915C02BF
:102D9000969581E0890F853208F081E00C947416D5
:102DA00081E00C94C516682F90915C0296958FEF88
:102DB000890F09F484E20C94741681E00C94D31604
:102DC00061E00C947416CF93DF93CCE5D2E0888158
:102DD000816088831F9281E08F9387E396E09F93C1
:102DE0008F930E94260A0F900F900F900F9088816A
:102DF0008695DF91CF910C94E01660E00C947416E8
:102E000080918901811161C080913302816080933A
:102E1000330286E697E09F938F930E94260A809163
:102E200033020F900F9080FF08C080E597E09F93DA
:102E30008F930E94260A0F900F900E94C125811146
:102E400010C08091330280FF08C088E297E09F9312
:102E50008F930E94260A0F900F900E9444260E9492
:102E60000D120E94ED1160935C0270935D028093DD
:102E70005E0290935F026E7FC1F48091330280FF07
:102E800008C08FED96E09F938F930E94260A0F90C3
:102E90000F900E940D120E94ED1160935C027093DE
:102EA0005D0280935E0290935F020E94DA110E949D
:102EB0001C1210928B0180915C0280FF03C08695EA
:102EC0000E94FD1681E0809389010895CF93DF93DE
:102ED000CCE5D2E088818E7F8883688179818A8180
:102EE0009B810E94F111888181701F928F938FEFD7
:102EF00095E09F938F930E94260A0E9465162FEFFC
:102F000080E792E0215080409040E1F700C000004F
:102F10000F900F900F900F90DF91CF910C94C112F2
:102F200080915C02809581701F928F938EE696E06F
:102F30009F938F930E94260A80915C020F900F90BE
:102F40000F900F9080FD0C9466170C94E3160F936E
:102F50001F93CF93DF9380918B01882309F48CC05A
:102F600080918A01E0915C02E695E81BE09385017F
:102F7000823049F4F0E0EC5BF74FE491CE2FD0E0E3
:102F80000BE113E149C0863049F4F0E0EF5BF74F05
:102F9000E491CE2FD0E00FE213E13EC0893051F42E
:102FA000E695F0E0E25CF74FE491CE2FD0E000EB45
:102FB00014E132C08F3051F4E695F0E0E55CF74F54
:102FC000E491CE2FD0E00AEE14E126C0853149F419
:102FD000F0E0E85CF74FE491CE2FD0E00AE515E190
:102FE0001BC0883181F0833239F4E6E3F8E0C59103
:102FF000D4910FE313E110C0843251F4C4EFD1E057
:1030000003E016E109C0C8EED3E00BEC15E104C003
:10301000C0EDD7E00BEC11E180918601882389F0A7
:10302000109286010E9481279E0120953095820F83
:10303000931F9093840180938301109288011092D2
:10304000870180918301909184010E9499278C17B8
:103050009D0790F0E0918301F0918401CE0FDF1F76
:10306000D0938401C093830183E891E0F801DF915C
:10307000CF911F910F910994DF91CF911F910F91E3
:1030800008952EB1342F309523233EB1432B3FB703
:10309000F894FC01680F791FE617F70789F0819112
:1030A00098E04EB9000000C087FF2EB9880F0000DD
:1030B00000C000C000C02EB900C09A9591F7ECCFB7
:1030C0003FBF08952DB1242B2DB99B01220F331F33
:1030D000620F731F0E94411887EC90E00197F1F78F
:1030E00000C00000089544E00C9462180F931F93F1
:1030F000CF93DF93C62FD42F022FFC018281882328
:10310000C9F060938E010E94812790938D01809376
:103110008C0180E28C0F883008F050C0C77081E0CD
:1031200001C0880FCA95EAF7DF91CF911F910F91E7
:103130000C94911C10918E01161330C080918C015B
:1031400090918D010E949927883C910538F5C0E245
:10315000CD0F1D17B9F080E2810F883040F4177051
:1031600081E001C0880F1A95EAF70E94981CC830C8
:1031700048F481E09D2F977001C0880F9A95EAF777
:103180000E94911C802F0E947E1CC830B8F4D7701A
:1031900081E001C0880FDA95EAF70AC080E28C0F5F
:1031A000883060F4C77081E001C0880FCA95EAF7E3
:1031B000DF91CF911F910F910C94981CDF91CF91CB
:1031C0001F910F9108959C01CB01203F4CE53407DE
:1031D000F9F078F4283DFCE53F07B9F0293D4CE5CE
:1031E000340711F1273D3C4531F526E241EE61EE11
:1031F0001EC0223FFCE53F0799F070F0233F3C459D
:10320000D1F427E245EE66EE12C027E245EE0EC08D
:1032100026E241EE60EE0BC027E245EE64EE07C009
:1032200026E241EE62EE03C028E241E065EE0E9434
:10323000761880E00895FC018281882319F01092AD
:103240008E01089581E008959093940180939301F5
:103250000895E0919301F0919401309721F001904D
:10326000F081E02D099480E00895EF92FF921F9382
:10327000CF93DF93FC01A0919301B091940110973B
:1032800009F442C080911C01882341F080917D02A5
:1032900087FF04C08081818385E08083EF011296DF
:1032A000ED91FC911397CE0109958091330282FF35
:1032B0002BC080FF04C085E59AE00E948D0918E0CC
:1032C0008FE4E82E8AE0F82E8091330280FF0BC055
:1032D00088811F928F93FF92EF920E94260A0F908F
:1032E0000F900F900F90115021961111EDCF8091FA
:1032F000330280FF09C08DE49AE0DF91CF911F91E6
:10330000FF90EF900C948D09DF91CF911F91FF906A
:10331000EF900895209191013091920182179307C7
:1033200071F09093920180939101E0919301F0915B
:103330009401309721F00680F781E02D09940895DB
:1033400020918F01309190018217930771F0909333
:10335000900180938F01E0919301F0919401309757
:1033600021F00084F185E02D0994089585B78068E7
:1033700085BF85B7806885BF0895089508950C942A
:10338000BE1908950C94C1190E94B6190E94BD1966
:103390000C94BF1981E008950E9478270E941510AF
:1033A0000E940D280E941D2B0E9400170C94C21928
:1033B000CF93C82F8091330282FF1EC080FF04C0CC
:1033C0008EE69AE00E948D098091330280FF0CC046
:1033D0001F92CF9389E69AE09F938F930E94260ACB
:1033E0000F900F900F900F908091330280FF04C0D8
:1033F00087E69AE00E948D098C2FCF910C94060BE2
:103400004F925F927F928F929F92AF92BF92CF9294
:10341000DF92EF92FF920F931F93CF93DF93CDB77D
:10342000DEB72A970FB6F894DEBF0FBECDBF0E945D
:1034300060100E94CA19811111C08FEF89838A839D
:103440001B820E9481278160782F9D838C83498114
:103450005A816B818D810E94BC1A57C096E9C92E92
:1034600091E0D92E00E010E0AA24A394B12C702E94
:10347000802F0E94C50F4C01F601419051906F01C1
:10348000482659264114510431F40F5F1F4F05306F
:10349000110569F7D2CF8091330281FD0E94CE0FD2
:1034A00020E030E07501022E02C0EE0CFF1C0A94F1
:1034B000E2F7C70184219521892B09F12E837F82B0
:1034C0008E209F2091E0892809F490E098870E943F
:1034D00081278160782F9A8789874E815F816885EF
:1034E0008A850E94BC1A000F111FF801EA56FE4F90
:1034F00080819181E826F926F182E08206C02F5F63
:103500003F4F2E30310571F6C0CF109195010E94CA
:1035100029191817D9F00E942919809395012A9624
:103520000FB6F894DEBF0FBECDBFDF91CF911F91D4
:103530000F91FF90EF90DF90CF90BF90AF909F9052
:103540008F907F905F904F900C94D8192A960FB669
:10355000F894DEBF0FBECDBFDF91CF911F910F91C9
:10356000FF90EF90DF90CF90BF90AF909F908F90A3
:103570007F905F904F900895CF93DF93CDB7DEB7E4
:103580002B970FB6F894DEBF0FBECDBF4F83588781
:1035900069877A878B87DE01119686E0FD0111929B
:1035A0008A95E9F785E0FE01379601900D928A959C
:1035B000E1F749815A816B817C818D819E810E94D6
:1035C000D1212B960FB6F894DEBF0FBECDBFDF9191
:1035D000CF910895FC01808191810E949D240895DE
:1035E000CF93DF931F92CDB7DEB7882309F423C1B1
:1035F000682F8238C1F40E94291981FD1CC169E33A
:1036000080911001909111010E94CD260E942825E1
:103610002FEF81EE94E0215080409040E1F700C010
:10362000000069E319C0833811F50E94291980FD53
:1036300002C163E580911001909111010E94CD2695
:103640000E9428252FEF81EE94E021508040904089
:10365000E1F700C0000063E5809110019091110135
:103660000E94D8260F90DF91CF910C9428258438A2
:10367000C1F40E94291982FDDEC067E48091100127
:10368000909111010E94CD260E9428252FEF81EEF6
:1036900094E0215080409040E1F700C0000067E4D2
:1036A000DBCF8CEF860F813A70F4862F69830E94FE
:1036B000D42A69818111BFC08091100190911101BC
:1036C0000E94CD26CFCF80E2860F883048F4677005
:1036D00081E001C0880F6A95EAF70E94DF24C2CF1B
:1036E0008BE5860F833088F4653A29F0663A31F02D
:1036F00083E890E005C081E890E002C082E890E0B5
:103700000F90DF91CF910C948A1988E5860F87314D
:1037100008F091C0683A09F445C0693A09F445C017
:103720006A3A09F445C06B3A09F445C06C3A09F4A9
:1037300045C06B3B09F445C06C3B09F445C06D3A8C
:1037400009F445C0603B09F445C06E3A09F445C030
:103750006F3A09F445C0613B09F445C0623B09F486
:1037600045C0633B09F445C0643B09F445C0653B73
:1037700009F445C0663B09F445C0673B09F445C000
:10378000683B09F445C0693B09F445C06D3B09F449
:1037900045C06E3B09F445C06A3B09F445C080E072
:1037A00090E044C082EE90E041C089EE90E03EC0DF
:1037B0008AEE90E03BC085EB90E038C086EB90E06D
:1037C00035C083EB90E032C084EB90E02FC087EBF4
:1037D00090E02CC08CEC90E029C08DEC90E026C0ED
:1037E00083E891E023C08AE891E020C082E991E07B
:1037F0001DC084E991E01AC081E292E017C083E223
:1038000092E014C084E292E011C085E292E00EC022
:1038100086E292E00BC087E292E008C08FE690E07B
:1038200005C080E790E002C08AE292E00F90DF914D
:10383000CF910C94A0190F90DF91CF910895882318
:1038400009F45BC0682F823879F40E94291981FF3E
:1038500054C069E380911001909111010E94CD261E
:103860000E94282569E310C08338B1F40E94291909
:1038700080FF43C063E580911001909111010E9487
:10388000CD260E94282563E58091100190911101B9
:103890000E94D8260C942825843879F40E9429198E
:1038A00082FF2BC067E480911001909111010E946A
:1038B000CD260E94282567E4E7CF8CEF860F813A5A
:1038C00018F380E2860F883048F4677081E001C009
:1038D000880F6A95EAF70E94E524DCCF8BE5860F16
:1038E000833020F480E090E00C948A19685A6731A4
:1038F00020F480E090E00C94A0190895CF93C82F95
:103900000E94F01AC93349F42FEF83EC99E021505B
:1039100080409040E1F700C000008C2FCF910C94C4
:103920001F1C882321F00E94DF240C942825089571
:10393000882321F00E94E5240C94282508954F92B5
:103940005F926F927F92BF92CF92DF92EF92FF923F
:103950000F931F93CF93DF937C01062FC72FFC019A
:10396000158112951F70D281D1110E94FC240E94F2
:10397000D524882379F0DD2369F080E2800F883038
:1039800048F082E00E9473250E94D52491E0B82E71
:10399000B92601C0B12CCC2EC2948FE0C822D12C04
:1039A000F601E859FF4F0C946C348C2F807FCF7058
:1039B000882311F0C295C07FDD2399F0CC2309F450
:1039C00082C180E2800F883010F0011104C08C2F7A
:1039D0000E94DF2403C08C2F0E94EF240E94282520
:1039E00072C1802F0E941F1CCC2309F4B5C180E254
:1039F000800F883010F0011104C08C2F0E94E52444
:103A000003C08C2F0E94F5240E942825A5C18C2F6D
:103A1000807FCF70803211F0C295C07F002319F0F3
:103A20000130C9F022C0DD2371F0112341F01130C3
:103A300031F40E940F258C2B0E9415258DC10E9408
:103A40000F258C2B1DC0112319F0113009F484C1EE
:103A50000E941E251AC0DD2321F0163008F07CC11B
:103A60000EC0153008F078C110C0DD2361F01123BD
:103A700031F0F701858180FF26C18F7085838C2FFF
:103A80000E94911C69C111112FC18C2FDAC08C2F9B
:103A900086958695837090E0009719F0019761F004
:103AA0005BC1DD2321F0802F9C2F937002C080E04A
:103AB00090E00E948A1960C1DD2321F0802F9C2FA5
:103AC000937002C080E090E00E94A01955C18C2F35
:103AD000837009F04BC0D1114BC1202F2295269540
:103AE0002770220F220F602F6F70862F90E0A0E0CA
:103AF000B0E02C013D01022E04C0440C551C661C94
:103B0000771C0A94D2F704FF10C08FE090E0A0E089
:103B1000B0E004C0880F991FAA1FBB1F2A95D2F7D7
:103B200080959095A095B09503C080E090E0DC0171
:103B3000C695C695C370D0E0BC01CD016429752936
:103B400086299729C230D10559F0C330D10559F0E3
:103B5000219719F00E9416230BC10E94042308C16B
:103B60000E94282305C10E94022302C1DD2319F00F
:103B70008C2F817001C08695882309F4F9C0202F0D
:103B8000229526952770220F220F602F6F70862FA7
:103B900090E0A0E0B0E02C013D01022E04C0440CF6
:103BA000551C661C771C0A94D2F704FF10C08FE0E6
:103BB00090E0A0E0B0E004C0880F991FAA1FBB1FCF
:103BC0002A95D2F780959095A095B09503C080E096
:103BD00090E0DC01C695C695C370D0E0BC01CD0174
:103BE0006429752986299729C230D10559F0C33037
:103BF000D10559F0219719F00E94DC23B9C00E9429
:103C0000CA23B6C00E94EE23B3C00E943D23B0C0B9
:103C1000802F90E0FC01E05EF109E531F10508F04C
:103C20004EC0E858FF4F0C946C340F708C2F8F717E
:103C3000DD2321F00E946323802F22CF0E94842362
:103C4000802F0E94981C88C0DD2341F0153008F0B9
:103C500083C08C2F8F710E94A9237EC0163008F07C
:103C60007BC0F7CFDD2339F08C2F8F710E94632347
:103C700073C0DD23C9F38C2F8F710E9484236CC025
:103C8000DD2329F08C2F8F710E944E2365C00E9486
:103C9000492362C0DD2349F0CF718C2F0E9463233A
:103CA00063E08C2F0E945E2557C081E00E9473253F
:103CB000123008F451C082E00E9473254DC0DD230C
:103CC00031F0112389F2802F0E94F01A45C0112390
:103CD00091F2093349F4FFEF23EC89E0F1502040E1
:103CE0008040E1F700C00000802F0E941F1C34C0FC
:103CF0004C2F4F70602FC7010E94120D0E94752239
:103D00003BC0D11139C0CF70D0E0C230D10599F09D
:103D10003CF4209769F02197F9F40E946A2B2CC09B
:103D2000C430D10571F054F02597B1F480E00AC099
:103D30000E943A2B21C00E94D42B1EC00E94F02B5F
:103D40001BC084E00E94262C17C04C2F4F70602FA0
:103D5000C7010E94150D10C098E0C916D10441F0AA
:103D60005CF0FAE0CF1AD10822E0C216D10420F4A8
:103D70000E9429190E94060BBB20F1F00E94D12459
:103D800080FD1AC0F70112820E94CB240E94632397
:103D9000C7010E94EA1E0E94CB24DF91CF911F91A0
:103DA0000F91FF90EF90DF90CF90BF907F906F903A
:103DB0005F904F900C948423DF91CF911F910F91CE
:103DC000FF90EF90DF90CF90BF907F906F905F90CB
:103DD0004F9008950F931F93CF93DF93EC01888149
:103DE00099812B813C81232BB9F09F3F11F48F3FA8
:103DF00099F0CE010E94180B882371F068817981B7
:103E00008A810E94A8248C010E9400240E94012320
:103E1000B801CE010E949F1CDF91CF911F910F919D
:103E200008950E94FC240E940C250E94282580E011
:103E300090E00E948A1980E090E00C94A019809193
:103E40001001909111010E94E3260C94111F0E9411
:103E5000EC240C941F1FE92FE295EF70F0E03297ED
:103E6000EE30F105B0F4E357FF4F0C946C34803F13
:103E700091F018F4803E68F40EC0843F51F40BC0FA
:103E8000803E48F0813F29F406C093FB882780F9E3
:103E9000089580E0089581E008950E949D240E9485
:103EA0002B1F0895CF93DF9300D000D01F92CDB782
:103EB000DEB70F900F900F900F900F90DF91CF9182
:103EC0000895CF93DF9300D000D000D0CDB7DEB7F8
:103ED00026960FB6F894DEBF0FBECDBFDF91CF910F
:103EE00008951F93CF93DF93C091A10116E08091B5
:103EF000A201C81799F0D0E01C9FF0011D9FF00DA2
:103F00001124ED55FE4F408151816281738184817E
:103F100095810E94611F2196C770E9CFDF91CF91F3
:103F20001F9108954091D3015091D4016091D50122
:103F30007091D6018091D7019091D8010C94611FA6
:103F40008091D80182958F7009F054C08091D5017D
:103F5000882309F44FC08091A101A091A201609132
:103F6000D3017091D4014091D6015091D701B6E0B0
:103F70008A1709F43FC090E041155105C1F17F3F18
:103F800011F46F3FA1F1B89FF001B99FF00D11241A
:103F9000ED55FE4F218172132AC02081621327C084
:103FA0002281211124C0238134812417350710F484
:103FB00021503109241B350B283C3105C0F42091D8
:103FC000D8012F7020612093D80126E0289FF001AE
:103FD000299FF00D1124E855FE4F80818F7080617C
:103FE000808383ED91E00E94EA1E0C94711F01967C
:103FF0008770BECF0895CF92DF92EF92FF920F931A
:104000001F93CF93DF93CDB7DEB762970FB6F894C7
:10401000DEBF0FBECDBF8C0185E0F801DE011D962D
:1040200001900D928A95E1F7D8014C9111965C911F
:10403000119712966C9112971396CD90DC9014976D
:104040003091D3017091D4018091D6019091D70124
:10405000009709F46BC17F3F19F43F3F09F466C133
:10406000E090D501EE2009F4C0C02091D801C81617
:10407000D90628F0F601E81BF90BCF0104C08095A2
:1040800090958C0D9D1DFF24F394883C910578F04C
:10409000F12C207F09F0C6C07C2DD98AC88A898975
:1040A0000E94521F83ED91E00E94EA1EB1C0822F50
:1040B000807F09F046C0751314C0341312C061111B
:1040C00010C02F7020612093D8010E94921F83EDB1
:1040D00091E00E94EA1E8091D801D80115968C9338
:1040E0002EC0CD2819F15F3F11F44F3FF9F0F62EA5
:1040F00061111CC08091A1012091A20136E08217BC
:1041000009F45AC090E0389FF001399FF00D112456
:10411000ED55FE4F7181571306C07081471303C0E0
:104120007281711103C001968770E9CFF62E662364
:1041300009F427C18091D80181608093D801F12CC6
:1041400020C1751308C0341306C0611104C08091EA
:10415000D801D801C3C04D875E878D859E856A8B47
:104160000E944D1F6A898823E1F16623D1F12091D5
:10417000D801822F82958F7090E0029774F0809121
:10418000D3019091D40198878F831986DB86CA86E4
:104190002C87CE0107960E94EA1E86E0F801A3ED67
:1041A000B1E001900D928A95E1F70E94A01F0E9454
:1041B000921FFF24F394E5C04D875E878D859E8511
:1041C0000E949D24292F22952F7030E02230310546
:1041D0000CF0CBC09F7009F0C5C0805E883008F439
:1041E000D0C0C8010E94EA1EE4CFC816D90608F460
:1041F00053C0F601E81BF90BCF01883C910508F488
:1042000050C0F12C7C2DD98AC88A89890E94521FFE
:10421000E3EDF1E086E0DF011D928A95E9F70E9467
:10422000921FAFC0751314C0341312C0611110C0B7
:104230008091D801F8018583C8010E94EA1E86E0BA
:10424000E3EDF1E0DF011D928A95E9F7FE2C99C0BC
:104250004D875E878D859E856A8B0E944D1F6A897A
:10426000882309F4BECF662309F4BBCF2091D8017F
:10427000822F82958F7090E002970CF48ECF809100
:10428000D3019091D4019A8389831B82DD82CC82F1
:104290002E83CE0101967FCF809590958C0D9D1D2C
:1042A000ACCFF62E662309F49CCF75132EC03413C1
:1042B0002CC02091D80120FD1FC0822F82958F70C5
:1042C000D9F0D80115962C9315978F3049F08F5F50
:1042D000982F9295907F822F8F70892B15968C93B3
:1042E000C8010E94EA1E86E0F801A3EDB1E001904A
:1042F0000D928A95E1F793CF86E0F801A3EDB1E046
:1043000001900D928A95E1F73CC04D875E878D85BF
:104310009E850E944D1F811140CF8091D801816000
:104320008093D801C8010E94EA1E2BC0662309F4BD
:1043300058CF4D875E878D859E850E944D1FF82E34
:10434000882309F44ECF86E0F801A3EDB1E0019097
:104350000D928A95E1F783ED91E00E94EA1A0E949E
:10436000A01F5DCF811139CF0CC0243031050CF076
:1043700038CF9F7009F431CFF8019581907F09F013
:104380002CCF8F2D62960FB6F894DEBF0FBECDBF37
:10439000DF91CF911F910F91FF90EF90DF90CF9021
:1043A00008951F93CF93DF93CDB7DEB72C970FB649
:1043B000F894DEBF0FBECDBF4F83588769877A87D9
:1043C0008B879C87CE0107960E94FB1F882369F08C
:1043D0008F8198852A853B85232BF1F19F3F09F03A
:1043E00063C08F3F09F060C037C086E0FE0137969A
:1043F000DE01119601900D928A95E1F76F81788523
:10440000EA85FB85309741F17F3F11F46F3F21F141
:104410002091A20130E0C90101968770992740914F
:10442000A10150E08417950709F447C069837A8396
:10443000FD83EC8396E0929FD001939FB00D1124F1
:10444000AD55BE4FFE01319601900D929A95E1F760
:104450008093A2010E94711F16E08091A1019091AA
:10446000A2018917C1F1189FC00111248D559E4FDB
:104470000E94FB1F882379F1E091A1011E9FF001AA
:104480001124ED55FE4F40815181628173818481F9
:1044900095810E94611F8091A10190E00196877033
:1044A00099278093A101D9CF4F81588569857A8555
:1044B0008B859C850E94611FCFCF0E94271F109281
:1044C000A2011092A101E3EDF1E086E0DF011D926F
:1044D0008A95E9F7C1CF2C960FB6F894DEBF0FBED0
:1044E000CDBFDF91CF911F910895EF92FF920F936F
:1044F0001F93CF93DF938C01892B09F46CC0F12CAF
:10450000EE24E394E8012196F8018491843740F485
:10451000843008F051C0813081F0823019F15BC0E5
:10452000853709F444C0A8F19CE7980F903708F04C
:1045300052C08F770E941F1C41C00E5F1F4FFE01AB
:10454000C49180E28C0F883048F4C7708E2D01C072
:10455000880FCA95EAF70E94FF2414C08C2F0E948E
:10456000F01A2DC00E5F1F4FFE01C49180E28C0F28
:10457000883058F4C7708E2D01C0880FCA95EAF7AD
:104580000E9405250E9428251AC08C2F0E941F1CFE
:1045900016C00E5F1F4FFE01C491CC2381F08FE93E
:1045A0009FE00197F1F700C00000C150F6CF0E5F09
:1045B0001F4FFE01F49003C00E94F01A8E018F2D50
:1045C000882309F49FCFEFE9FFE03197F1F700C0AE
:1045D00000008150F5CFDF91CF911F910F91FF9097
:1045E000EF90089508950C94F2220E94F3226093B4
:1045F0000A0270930B0280930C0290930D020C94AC
:10460000111F08950C94F5220F931F9300910A0235
:1046100010910B0220910C0230910D02602B712B36
:10462000822B932B1F910F910C94F5220F931F93C4
:1046300000910A0210910B0220910C0230910D02A0
:1046400060237123822393231F910F910C94F522F1
:104650000F931F9300910A0210910B0220910C02FC
:1046600030910D0260277127822793271F910F91A8
:104670000C94F52208950C943A230E943B236093F6
:1046800006027093070280930802909309020C942B
:10469000111F60E070E0CB010C943D230F931F933A
:1046A00041E050E060E070E08A019B0104C0000F2F
:1046B000111F221F331F8A95D2F7C901B8011F911C
:1046C0000F910C943D230F931F9341E050E060E065
:1046D00070E004C0440F551F661F771F8A95D2F7FC
:1046E0008091060290910702A0910802B091090200
:1046F0008A019B01082B192B2A2B3B2BC901B801DE
:104700001F910F910C943D230F931F9341E050E0B4
:1047100060E070E004C0440F551F661F771F8A9544
:10472000D2F74095509560957095809106029091D2
:104730000702A0910802B09109028A019B01082397
:1047400019232A233B23C901B8011F910F910C940F
:104750003D230F931F9341E050E060E070E004C000
:10476000440F551F661F771F8A95D2F78091060266
:1047700090910702A0910802B09109028A019B0161
:10478000082719272A273B27C901B8011F910F9134
:104790000C943D230F931F93009106021091070282
:1047A0002091080230910902602B712B822B932BF0
:1047B0001F910F910C943D230F931F9300910602BC
:1047C00010910702209108023091090260237123A1
:1047D000822393231F910F910C943D230F931F93DA
:1047E00000910602109107022091080230910902FF
:1047F00060277127822793271F910F910C943D23E7
:1048000008952EE0929F800D1124A82FA695A695BD
:10481000A695877051E001C0550F8A95EAF785E0AB
:10482000A89FD001112420E030E070E0F901EA0FE8
:10483000FB1FE752FE4F4081CB01022E02C096952E
:1048400087950A94E2F781709927819584278523BB
:10485000842780832F5F3F4F2530310539F7089536
:104860002EE0929F800D1124682F669566956695BF
:10487000982F977085E0689FB001112440E050E0C8
:1048800080E0FA01E60FF71FE752FE4F208130E08B
:10489000092E02C0369527950A94E2F72170332736
:1048A000042E01C0220F0A94EAF7822B4F5F5F4F5C
:1048B0004530510531F70895BF92CF92DF92EF92C4
:1048C000FF920F931F93CF93DF938C01C0900A0246
:1048D000D0900B02E0900C02F0900D028091060245
:1048E00090910702A0910802B0910902C82AD92A22
:1048F000EA2AFB2ACFE1D0E0D701C6010C2E04C082
:10490000B695A795979587950A94D2F780FF07C02B
:10491000BC2EB8018C2F0E94300D019719F42197FD
:1049200058F7B12C8B2DDF91CF911F910F91FF90F4
:10493000EF90DF90CF90BF900895CF93DF93EC017D
:104940000E945C24BE010E94300DDF91CF9108953A
:104950001F93CF93DF93EB019091A001992321F056
:10496000CB010E949D2413C0882349F0CB010E94F3
:104970005C24182F682FCE010E94012404C0CB01B3
:104980000E943024182FBE01812F0E94300DDF912C
:10499000CF911F91089580910E02859585958595FB
:1049A000089580910E028770089590910E0297707D
:1049B00081E009F480E00895809132020895909199
:1049C0003202892B809332020895809590913202B1
:1049D00089238093320208951092320208959091B3
:1049E0003102892B80933102089580959091310294
:1049F0008923809331020895109231020895909195
:104A00003002892B80933002089580959091300276
:104A10008923809330020895109230020895809186
:104A20000F02089508950C94122590910F02981783
:104A300021F080930F020C941325089580910F02AA
:104A4000882329F010920F0280E00C94132508951A
:104A5000E0911001F0911101809132028083E09188
:104A60001001F0911101908180913102892B808396
:104A7000E0911001F0911101908180913002892B19
:104A8000808380910F02882381F0E0911001F091E2
:104A900011019081892B80838091100190911101E7
:104AA0000E94462681110E941E258091100190913E
:104AB00011010C94351908950C945B2598E0899F99
:104AC00090011124262B20930E020E9463238091D3
:104AD0000E028595859585950C945C2510920E02A5
:104AE00080E00C945C2520910E02809582238093B7
:104AF0000E02982F977079F430E0482F082E000CA2
:104B0000550B2417350739F08595859585950E94B5
:104B100084230C946E25089590936501809364011D
:104B200008958295982F9C7C392F36953695282F9D
:104B3000237344E0249FC0011124932F982B292F25
:104B40002A7A2695892F8575880F822B08951F93C1
:104B5000CF93DF931F92CDB7DEB799830E94912543
:104B6000182F9981892F0E949125212F30E0322F13
:104B70002227A901482BCA010F90DF91CF911F91E5
:104B8000089580E090E00E94A73421E08D3E9E4F82
:104B900009F020E0822F089582E090E00C9499348F
:104BA00083E090E00C94993484E090E00C94993484
:104BB000682F84E090E00C94AD3486E090E00C9493
:104BC0009934682F86E090E00C94AD34AB01BC01C1
:104BD0008FE090E00C94BF34AB01BC0183E190E026
:104BE0000C94BF3460E070E0CB010C94EC2560E0E5
:104BF00070E0CB010E94E6250C94F2256DEE7EEF6D
:104C000080E090E00E94CB3460E082E090E00E947F
:104C1000AD3460E083E090E00E94AD3410920A026F
:104C200010920B0210920C0210920D0260E084E0D0
:104C300090E00E94AD3460E085E090E00E94AD34E9
:104C400060E086E090E00E94AD346FEF87E090E096
:104C50000E94AD3440E050E0BA0188E090E00E944C
:104C6000BF3460E08DE090E00E94AD3440E050E061
:104C7000BA0188E190E00E94BF3460E087E190E0F3
:104C80000E94AD340C94F7250C94FE25FC0132965D
:104C900080911C01882331F080917D0287FF02C042
:104CA0009EE101C096E080E0915028F021912223FE
:104CB000D9F38F5FF9CF08959C01FC0132969FEFE5
:104CC00080E04191461789F09F3F19F4411101C0DE
:104CD000982F8F5F8630A9F79F3F39F0F901E90FD0
:104CE000F11D97FDFA95628308950895FC013296AF
:104CF00008962081261301C010823196E817F90723
:104D0000C1F70895262F2695269526952E3170F405
:104D1000FC01E20FF11D677021E030E001C0220FBD
:104D20006A95EAF78281282B2283089580913302C5
:104D300080FF0CC01F926F938FE99AE09F938F932F
:104D40000E94260A0F900F900F900F900895262F23
:104D50002695269526952E3178F4FC01E20FF11D5B
:104D6000677021E030E001C0220F6A95EAF72095D4
:104D700082812823228308958091330280FF0CC012
:104D80001F926F9381E89AE09F938F930E94260A67
:104D90000F900F900F900F90089520911C012223E7
:104DA00029F020917D0227FD0C9482260C945C262C
:104DB00020911C01222329F020917D0227FD0C94D3
:104DC000A7260C94762620911C01FC013296222302
:104DD00031F080917D0287FF02C08EE101C086E044
:104DE000DF011D928A95E9F7089508950C94F52640
:104DF0000E94F62680918402843061F11092340280
:104E000020E488E190E00FB6F894A89580936000C4
:104E10000FBE2093600080E00E948E0A80E00E9416
:104E2000060B0E94F62683B7817F846083BF83B719
:104E3000816083BF7894889583B78E7F83BF0FB6D8
:104E4000F894A8958091600088618093600010922A
:104E500060000FBE089508950895CF930E942B27F8
:104E60000E9460100E942C27C0E08C2F0E94C50F6A
:104E7000892B29F4CF5FC530C1F780E001C081E004
:104E8000CF91089508950C9442270E94271F0E94F5
:104E90001D2B0E9429190E94060B0C9443271F9278
:104EA0000F920FB60F9211248F939F93AF93BF93DE
:104EB00080913402811113C08091790290917A021D
:104EC000A0917B02B0917C024196A11DB11D8093FF
:104ED000790290937A02A0937B02B0937C02BF91F7
:104EE000AF919F918F910F900FBE0F901F901895CB
:104EF00082E084BD93E095BD9AEF97BD80936E00EC
:104F000008952FB7F8948091790290917A02A09138
:104F10007B02B0917C022FBF08952FB7F894609167
:104F2000790270917A0280917B0290917C022FBF6E
:104F30000895CF92DF92EF92FF920F931F932FB7B6
:104F4000F8944091790250917A0260917B027091BD
:104F50007C022FBF6A017B01EE24FF248C0120E03C
:104F600030E0C016D106E206F30610F441505109B4
:104F70009A01281B390BC9011F910F91FF90EF90E7
:104F8000DF90CF90089578941F920F920FB60F92F2
:104F900011248F939F93AF93BF9380917902909147
:104FA0007A02A0917B02B0917C020196A11DB11DF5
:104FB0008093790290937A02A0937B02B0937C0253
:104FC000BF91AF919F918F910F900FBE0F901F9047
:104FD000189581E08093E00080E28093D8001092E1
:104FE000C9008FE19EE40197F1F700C0000087E05F
:104FF00090EBDC0180938D0290938E02A0938F0240
:10500000B09390029CE088E10FB6F894A895809345
:1050100060000FBE90936000FFCF0E94C1258111F8
:1050200002C00E9444260E94CC25809333020E9435
:10503000D42590E090937E0280937D020E94D0253B
:10504000682F70E080E090E00C940223CF93C82F8B
:105050001F928F9383EC9AE09F938F930E94260A6E
:1050600081E090E0A0E0B0E0BC01CD0104C0660F9B
:10507000771F881F991FCA95D2F70E9402230F90AD
:105080000F900F900F90CF910C94271FCF93482F24
:1050900050E0FA013597EF33F10508F079C2E55693
:1050A000FF4F0C946C3488E590E10E948D0984E9EF
:1050B0009FE00E948D090E94D0251F928F9381E965
:1050C0009FE09F938F930E94260A8FE89FE00E94A3
:1050D0008D090E94CC25C82F8CE79FE00E948D0986
:1050E0001F92CF9387E79FE09F938F930E94260A9A
:1050F00085E79FE00E948D098BE69FE00E948D0965
:105100008C2F81701F928F9388E69FE09F938F93DF
:105110000E94260A86E69FE00E948D098CE59FE0AA
:105120000E948D09C1FB882780F91F928F9389E522
:105130009FE09F938F930E94260A87E59FE00E943D
:105140008D098BE49FE00E948D09C2FB882780F9BE
:105150001F928F9388E49FE09F938F930E94260A6B
:1051600086E49FE00E948D098DE39FE00E948D09F7
:10517000C3FBCC27C0F91F92CF938AE39FE09F9394
:105180008F930E94260A88E39FE00E948D090E9467
:10519000D425C82F84E29FE00E948D091F92CF93EF
:1051A0008FE19FE09F938F930E94260A8DE19FE0FD
:1051B0000E948D0984E09FE00E948D098C2F8170F0
:1051C0001F928F9381E09FE09F938F930E94260A06
:1051D0008DB79EB780960FB6F8949EBF0FBE8DBF59
:1051E0008FEF9EE00E948D0988EE9EE00E948D095F
:1051F000C1FB882780F91F928F9385EE9EE09F93D5
:105200008F930E94260A83EE9EE00E948D0981ED15
:105210009EE00E948D09C2FB882780F91F928F9320
:105220008EEC9EE09F938F930E94260A8CEC9EE06A
:105230000E948D098AEB9EE00E948D09C3FB88279E
:1052400080F91F928F9387EB9EE09F938F930E942C
:10525000260A85EB9EE00E948D098BEA9EE00E9463
:105260008D09C4FB882780F91F928F9388EA9EE0FE
:105270009F938F930E94260A86EA9EE00E948D09E2
:1052800084E99EE00E948D09C5FB882780F91F9262
:105290008F9381E99EE09F938F930E94260A8FE867
:1052A0009EE00E948D0983E79EE00E948D09C6FB67
:1052B000882780F91F928F9380E79EE09F938F93BA
:1052C0000E94260A8EE69EE00E948D0986E69EE0F8
:1052D0000E948D09C7FBCC27C0F91F92CF9383E6AC
:1052E0009EE09F938F930E94260A81E69EE00E9493
:1052F0008D090E94DD25C82F8AE49EE00E948D0959
:105300001F92CF9385E49EE09F938F930E94260A7D
:105310008DB79EB780960FB6F8949EBF0FBE8DBF17
:1053200083E49EE00E948D0989E39EE00E948D093E
:105330008C2F81701F928F9386E39EE09F938F93B3
:105340000E94260A84E39EE00E948D098BE29EE083
:105350000E948D09C6951F92CF9388E29EE09F938D
:105360008F930E94260A86E29EE00E948D098DB7E7
:105370009EB708960FB6F8949EBF0FBE8DBF06C0AD
:1053800087E490E10E948D090E944426C1E005C196
:1053900084E79CE07FC080913302817F8E7F809381
:1053A000330289E59CE00E948D0983E490E10E942C
:1053B0008D0981E080933502E9CF0E94271F87E2A3
:1053C00090E10E948D099FEF23ED80E391502040F2
:1053D0008040E1F700C000000E94E927D7CF80910C
:1053E0003302C82FC095C170C0FB80F9809333028F
:1053F000CC2319F08BE190E1BDC08EE090E10E94DA
:105400008D0980913302897F877F80933302BECFDD
:105410009091330291FBCC27C0F981E0C827892FF6
:10542000C0FB81F980933302CC2319F081E090E135
:1054300027C083EF9FE02EC09091330292FBCC27D0
:10544000C0F981E0C827892FC0FB82F9809333021D
:10545000CC2319F084EE9FE013C084ED9FE01AC0C6
:105460009091330293FBCC27C0F981E0C827892FA4
:10547000C0FB83F980933302CC2351F088EC9FE08A
:105480000E948D098091330281608093330285C030
:105490008BEB9FE00E948D0979CF8AE49CE00E940B
:1054A0008D0984E19CE00E948D0982EE9BE00E94C0
:1054B0008D0989EA9BE00E948D0987E79BE00E94A5
:1054C0008D0989E49BE0E6CF8BE39BE00E948D0988
:1054D0000E9429191F928F9381E29BE09F938F93E3
:1054E0000E94260A80911C011F928F938AE09BE004
:1054F0009F938F930E94260A80915A021F928F9346
:1055000087EF9AE09F938F930E94260A80917D02F5
:1055100087FB882780F91F928F938FED9AE09F93E6
:105520008F930E94260A0E948D279F938F937F93CB
:105530006F9388EC9AE09F938F930E94260A8DB711
:105540009EB746960FB6F8949EBF0FBE8DBF1ECF76
:105550000E94271F90917D0297FBCC27C0F981E024
:10556000C827892FC0FB87F980937D02CC2329F0BF
:1055700081EB9FE00E948D0910C086EA9FE08ACFF0
:10558000895303C08D5101C080E00E942628FECEC1
:1055900084EA9FE00E948D09C0E08C2FCF9108958E
:1055A00080E0089580E00895CF93C82F8091350260
:1055B000882319F0813031F038C00E94DC24823217
:1055C000B1F504C00E94DC24823261F48C2F0E9469
:1055D000D02A811104C08C2F0E94462824C081E06B
:1055E00090E021C08C2F0E94D22A81111BC0C431AF
:1055F00089F018F4CB3029F010C0C93259F0C83303
:1056000061F489E59CE00E948D098FEB9AE00E948D
:105610008D0908C0109235020CC08DEB9AE00E94F3
:105620008D0907C081E0817006C01092350280E0CC
:1056300002C080E0F8CFCF9108950E94C12581116A
:1056400002C00E9444260E94DD2580937F02282FFD
:10565000269530E02530310524F0817088608093F4
:105660007F0280917F0280FF02C0869501C080E0AA
:105670000C948E0A20917F02822F8695482F50E04D
:105680004430510544F48F5F982F990F822F817019
:10569000892B80937F0280917F02816080937F02BB
:1056A0000E94E1258091330280FF0FC080917F022C
:1056B00086951F928F938AEC90E19F938F930E941F
:1056C000260A0F900F900F900F9080917F02869581
:1056D0000C948E0A80917F02982F969591F09158A4
:1056E000990F8170892B80937F028E7F91E009F45E
:1056F00090E080917F0290FB80F980937F020E946E
:10570000E1258091330280FF0FC080917F02869552
:105710001F928F9382EB90E19F938F930E94260AB2
:105720000F900F900F900F9080917F0286950C94B0
:105730008E0A80917F0280FD1DC0816080937F0270
:10574000813019F483E080937F0280917F020E9470
:10575000E1258091330280FF08C08AE890E19F93A1
:105760008F930E94260A0F900F9080917F0286955A
:105770000C948E0A089580917F0280FF14C08E7F62
:1057800080937F020E94E1258091330280FF08C050
:1057900087E790E19F938F930E94260A0F900F90C6
:1057A00080E00C948E0A0895CF93C0917F02C1705F
:1057B0008091330280FF0CC01F92CF938CE990E15F
:1057C0009F938F930E94260A0F900F900F900F9037
:1057D000CC2319F0CF910C94BB2BCF910C94992B27
:1057E00090917F02892F86958F5F8F77917085309A
:1057F00028F4880F892B80937F0202C090937F0248
:1058000080917F028E7F91E009F490E080917F0289
:1058100090FB80F980937F020E94E1258091330202
:1058200080FF0FC080917F0286951F928F9383E641
:1058300090E19F938F930E94260A0F900F900F90F4
:105840000F9080917F0286950C948E0A853008F027
:1058500084E0880F90917F029170892B80937F0262
:105860008E7F91E009F490E080917F0290FB80F9B7
:1058700080937F020E94E12580917F0286950C949F
:105880008E0A80915902089508959FB7F894109256
:1058900038029FBF90918402943009F057C09091D4
:1058A000E9009F703091EC00232F217030FD20E83B
:1058B000922B23E02093E9002091EB0020FF43C0CE
:1058C0002091EE0027FF3FC020913602222321F0D5
:1058D0002091E80025FF37C01092360226E0309173
:1058E000E80035FD15C030918402343061F5309107
:1058F000EB0035FD28C0215021F481E08093360271
:1059000022C0EFE9FFE03197F1F700C00000E7CFD8
:105910008093F1008091E80085FD0AC08091E80045
:1059200080FFFCCF8091E8008E778093E80006C06E
:105930008FB7F89421E0209338028FBF9F70909327
:10594000E90080E008959F709093E9008FEF08953B
:105950000F931F93CF93DF9300D01F92CDB7DEB785
:105960008C010E944E2F823011F0843021F584E0AA
:1059700089831B830A8382E08093E9008FEF9091F3
:10598000E800815095FD06C095ED9A95F1F700006D
:105990008111F5CF8091E80085FF0DC040E050E017
:1059A00063E070E0CE0101960E946B2F8091E800C9
:1059B0008E778093E8000F900F900F90DF91CF913A
:1059C0001F910F910895CF93DF9300D01F92CDB711
:1059D000DEB720918402243031F523E029838058FA
:1059E00091099B838A8382E08093E9008FEF9091F5
:1059F000E800815095FD06C095ED9A95F1F70000FD
:105A00008111F5CF8091E80085FF0DC040E050E0A6
:105A100063E070E0CE0101960E946B2F8091E80058
:105A20008E778093E8000F900F900F90DF91CF91C9
:105A30000895CF93DF93EC010E944E2F823011F036
:105A40008430D9F580911C01882339F080917D0242
:105A500087FF03C060E282E002C068E081E08093DB
:105A6000E9008FEF9091E800815095FD06C095ED1B
:105A70009A95F1F700008111F5CF8091E80085FF3C
:105A80001CC080911C01811105C040E050E068E01D
:105A900070E003C070E040E050E0CE010E946B2F48
:105AA0008091E8008E778093E80080E2FE01A9E310
:105AB000B2E001900D928A95E1F7DF91CF910895C0
:105AC00087E091E10E948D0980918302811109C0D4
:105AD0000E9400310E945D318091E20084608093D9
